:020000040800F2
:104000003814002071720008ED6D0008EF6D000893
:10401000F16D0008F36D0008F56D0008AC71000843
:10402000000000000000000000000000F96D000822
:10403000F76D000800000000FB6D0008FD6D000832
:10404000FF6D0008016E0008036E0008056E000891
:10405000076E0008096E00080B6E00080D6E000860
:104060000F6E0008116E0008136E0008156E000830
:10407000176E0008196E00081B6E00081D6E000800
:104080001F6E0008216E0008236E0008256E0008D0
:10409000296E00082D6E00082F6E0008316E000892
:1040A000336E0008356E0008376E0008396E000860
:1040B0003B6E00083D6E0008016F0008036F0008AA
:1040C000056F0008076F0008096F00080B6F0008F4
:1040D0000D6F00080F6F0008116F0008136F0008C4
:0C40E000156F0008176F0008196F00082A
:1040EC0010B5DFF8A047002800D12FE0DFF89807C3
:1040FC0000680068804720680A3010BD80B5DFF882
:10410C0084070068C178DFF8842752788A420DD37F
:10411C008278002A0AD18288002A07D18172DFF8BE
:10412C006807006840688047002002BD022002BD7D
:10413C0010B5DFF85047002800D107E0DFF848073A
:10414C0000688068804720680C3010BD2068012111
:10415C000182002010BD10B5DFF828472068C17817
:10416C004079DFF82C2712689269904721688A7A87
:10417C00002A07D0002805D10879002802D18878B8
:10418C00002801D0022010BDDFF8FC060068C068D2
:10419C00804720684179C1722068C1780173002082
:1041AC0010BD10B5DFF8DC160968002803D1022019
:1041BC000882002010BDDFF8DC4600202080087843
:1041CC007F22104216D1487A810603D5002141F096
:1041DC00020121704006207809D540F001002070C2
:1041EC00DFF8A406006800698047204610BD00F087
:1041FC00FE00F4E700F07F02012AF6D000F07F0009
:10420C000228D6D1487900F00F01DFF88C26000681
:10421C0052F8210005D500F030001028E0D1002024
:10422C00DBE700F44050B0F5805FD9D10020D4E733
:10423C0070B5DFF850060068017811F07F0102BFFD
:10424C00417A01F0DF01417254D0022905D1418835
:10425C00002902D10179002901D0022070BD4179D9
:10426C0021F08005DFF830460A0654F825204CBFB3
:10427C0002F0300202F44052DFF810361B789D42F7
:10428C00EBD2002AE9D0807A0028E6D0080654F850
:10429C0025000BD500F03000102826D1284600F060
:1042AC0081FB3021284600F031FB1EE000F4405029
:1042BC00B0F5805F19D14BF68F7665B9DFF8DC0568
:1042CC0090F82C10002000F09AFB2068304080F40D
:1042DC004050206009E0284600F054FB54F82500BB
:1042EC00304080F4405044F82500DFF89C0500680D
:1042FC0040698047002070BD38B5DFF8880502683A
:10430C00537923F08000DFF890151C0651F82040FB
:10431C004CBF04F0300404F44054DFF870552D7891
:10432C00A84207D25588002D04D1002C02D0927AD5
:10433C00002A01D1022032BD1A0651F8202042BFBA
:10434C0048F6BF731A4082F0100204D44BF68F73F8
:10435C001A4082F4805241F82020DFF82C050068C6
:10436C0080698047002032BD80B5DFF818050068F1
:10437C00417A41F020014172DFF80C050068C069F8
:10438C008047002002BDDFF8FC241268538A20B954
:10439C008888C01A10820020704708681818704767
:1043AC00F8B5DFF8E054286800F110042688A168FD
:1043BC00080015D0A6B1A088864288BF06463046B4
:1043CC00884707462088801B2080608830186080D2
:1043DC00002000F006FB32460146384600F071FB27
:1043EC00208860B1DFF8B8044FF4405101800021FF
:1043FC00002000F0FDFADFF8AC04302101802868C1
:10440C002188A288914202D303210172F1BD0029B7
:10441C0001D00521F9E706210172DFF88C04006850
:10442C0080B2DFF88814002241F81020DFF8740401
:10443C0030210180F1BD38B5DFF84844206845785B
:10444C0001787F2211422CD1092D02D1FFF756FEA3
:10445C0038E0052D0BD1C178802906D2817821B99D
:10446C00818811B9807A002839D0082045E0032DC5
:10447C000AD1C178012926D1818821BB407A8006D6
:10448C0021D5FFF771FF1DE0012D1CD1C178012949
:10449C0019D18188B9B9407A800614D5FFF7C8FEC6
:1044AC0010E001F07F00012804D10B2D0BD1FFF798
:1044BC0052FE07E0022806D1012DEFD0032D02D1C8
:1044CC00FFF71AFF58B12846DFF8C4130968496989
:1044DC008847032808BF09200FD00028C5D1062023
:1044EC00DFF8C413096889B2DFF8C023002342F84F
:1044FC001130DFF8B01330220A802168087231BD08
:10450C002DE9F041DFF87C4320684178062919D168
:10451C0001787F22114236D18078012802BFDFF862
:10452C0070030068C16979D0022802BFDFF860030C
:10453C000068016A72D0032825D1DFF854030068A3
:10454C00416A6BE0002945D14188E1B9C188022953
:10455C0019D10179B9B901787F22114204D182882D
:10456C0012B9DFF84C1359E001F07F02012A16D181
:10457C0000214079C64A12689269904718B92068A0
:10458C00807A0028EDD120684078C1490968096912
:10459C00884703284BD12068092101729BE001F068
:1045AC007F010229EFD1407900F00F0100F0700279
:1045BC00B94B000653F821004CBF00F0300000F45A
:1045CC004050B24B1B789942DDD2002ADBD1002837
:1045DC00C7D1D8E7082905D100787F210842D2D16C
:1045EC00B4491BE00A29CED1017801F07F010129E1
:1045FC00C9D1817A0029C6D041880029C3D101795B
:10460C000029C0D1C1880129BDD100214079A04A1F
:10461C001268926990470028B5D1A7490800B2D01A
:10462C002068002242828161002088470020216896
:10463C000A8A4FF6FF739A4202D1092008724AE0A7
:10464C00022800D00AB90820F8E7087800063CD503
:10465C00C888904238BF08828D48006890F82C00BA
:10466C00888201F11005288810B9097A042925D00F
:10467C00AF88874238BF022604D30426B84288BFCD
:10468C00384607463846A96888478046002000F01F
:10469C00A7F901463A46404600F0FFF9394600209A
:1046AC0000F0A6F92888C01B288068883818688014
:1046BC0030207B494FF440520A8001E0072610203D
:1046CC00784908802068067205E003200872744857
:1046DC004FF440510180BDE8F08138B57248006854
:1046EC0080B2764931F81000400000F1804000F5AE
:1046FC00C040644C21680A7A092A14D010F8012BA6
:10470C000A70216810F8012B4A70851C35F8040BCF
:10471C0000F0BEF921684880288800F0B9F92168BA
:10472C008880A888C8802068012101722068C08810
:10473C0010B9FFF780FE01E0FFF7E2FEBDE8314063
:10474C006FE02DE9F0414F4C2068017A022901D02D
:10475C00042934D100F11005288808B9042925D082
:10476C00AF88874238BF022604D30426B84288BFDC
:10477C00384607463846A96888478046002000F02E
:10478C002FF93A460146404600F087F93946002099
:10479C0000F02EF92888C01B28806888381868809B
:1047AC0030203F494FF440520A8001E00726102088
:1047BC003C490880206806722068007A14E00629BB
:1047CC0011D1417805290AD101787F22114206D1F5
:1047DC00C07800F040F82C480068006A80472C48EC
:1047EC00006880688047082021680872BDE8F041A5
:1047FC0017E010B5234C2068007A032801D0052857
:10480C0004D1FFF7CDFD2068007A06E0072803D11C
:10481C001F480068C0688047082021680872BDE8FE
:10482C00104080B51D4890F82C10002000F0E7F8DF
:10483C0014480068017A082906D119494FF48052AE
:10484C000A80184910220A80007A092801D1012017
:10485C0002BD002002BDF0B40C49097800220E4BB9
:10486C0059B11C4648F68F7526682E40D7B23E4388
:10487C0044F8046B521C8A42F6D340F08000D86492
:10488C00F0BC7047A0030020A803002014010020F6
:10489C00A40300201C040020005C00400000002049
:1048AC002004002022040020505C004004600040E2
:1048BC00AF410008ED4000083D4100080860004091
:1048CC00704710B450F8041B81B102681218001D17
:1048DC0050F8043BDC0744BFA9F10104E31852F87B
:1048EC00044B43F8044B091FF9D1EBE710BC70479C
:1048FC004FF6F8710840DFF8801108607047DFF858
:10490C007C2152F8203048F68F1C5BE0DFF86C21DC
:10491C0052F8203048F6BF7C0CEA03035FEAC16C06
:10492C0048BF83F01003890648BF83F0200310E0D2
:10493C00DFF8482152F820304BF68F7C0CEA030349
:10494C005FEAC14C48BF83F48053890448BF83F4A9
:10495C00005342F820307047DFF8201151F8202026
:10496C004BF68F731A4082F4405208E0DFF80C11BA
:10497C0051F8202048F68F6300E000001A4041F8FF
:10498C0020207047DFF8F41051F82020520408D58D
:10499C0051F8202048F68F731A4042F4804241F8B7
:1049AC0020207047DFF8D41051F82020520608D58B
:1049BC0051F8202048F68F731A4042F0400241F81B
:1049CC00202070470CEA0303194342F8201070476B
:1049DC0038E0294A126892B202EBC000284A37E04C
:1049EC003BE02549096889B201EBC00024493AE053
:1049FC00214A126892B202EBC000224A2AE01E4AF7
:104A0C00126892B202EBC0001F4A02EB40003F2931
:104A1C0009D34A091F23194208BF521E12049109D7
:104A2C0041F4004105E04A08C90748BF521C120472
:104A3C009109016070471049096889B201EBC00007
:104A4C00114914E00C4A126892B202EBC0000F4AF2
:104A5C004908490042F8101070470749096889B2A3
:104A6C0001EBC000094951F8100080B2704751F8B1
:104A7C0010008005800D7047505C0040005C0040C9
:104A8C0008600040046000400C6000400060004082
:104A9C000106090C41EA10207047490001F18041E0
:104AAC0001F5C041521C52100AD010F8013B10F80D
:104ABC0001CB43EA0C2321F8023B891C521EF4D192
:104ACC007047490001F1804101F5C041521C521060
:104ADC0005D051F8043B20F8023B521EF9D1704727
:104AEC000000000000001C002000400040004000BE
:104AFC004000400020001C000000000000000000EE
:104B0C0000000000000000E0001000080008000891
:104B1C00300C600CC000800100033006300C00002B
:104B2C0000080008001000E0000000000000000079
:104B3C00102010201020102010201020F03F00001A
:104B4C0000000000C00FE01F3030102000000000FB
:104B5C000000000010203030E01FC00F00000000EB
:104B6C000000C018800D00070007800DC018000061
:104B7C00000000010001C007C00700010001000097
:104B8C00000000000000FCFF00000000000000001E
:104B9C000000000100010001000100010001000003
:104BAC000000000000003000300000000000000099
:104BBC0030006000C000800100030006000C000003
:104BCC00E01FF03F902010231024F03FE01F000066
:104BDC00000010081018F03FF03F1000100000000B
:104BEC007010F0309021102310263038301800004F
:104BFC0020103030102210221022F03FE01D000057
:104C0C0000030007000D1019F03FF03F10010000E9
:104C1C00203E303E102210221023F023E021000011
:104C2C00E00FF01F103210221022F003E001000000
:104C3C0000300030F020F0210023003E003C00004A
:104C4C00E01DF03F102210221022F03FE01D00006A
:104C5C00001C103E102210223022E03FC01F00002A
:104C6C00000000000000600C600C00000000000060
:104C7C004000400040004000400040004000400028
:104C8C00000000018003C006600C301810100000FA
:104C9C00400240024002400240024002400200003A
:104CAC00000010103018600CC006800300010000DA
:104CBC00001800380020B023B027003C001800007A
:104CCC00C00F201090279024D0275010800F000088
:104CDC00F007F00F001900310019F00FF007000079
:104CEC001020F03FF03F10221022F03FE01D00009A
:104CFC00C00FE01F30301020102030306018000042
:104D0C001020F03FF03F10203030E01FC00F0000AB
:104D1C001020F03FF03F1022102730307038000088
:104D2C001020F03FF03F1022002700300038000028
:104D3C00C00FE01F303010211021E031F0190000BD
:104D4C00F03FF03F000200020002F03FF03F000095
:104D5C00000000001020F03FF03F10200000000089
:104D6C00E000F00010001020F03FE03F00200000B9
:104D7C001020F03FF03F0003000FF03C70300000BB
:104D8C001020F03FF03F10201000300030000000E9
:104D9C00F03FF03F001C000E001CF03FF03F000005
:104DAC00F03FF03F001C000E0007F03FF03F00000A
:104DBC00C00FE01F303010203030E01FC00F00005B
:104DCC001020F03FF03F10220022003E001C00009B
:104DDC00E01FF03F102070203020F83FE81F00004B
:104DEC001020F03FF03F00220023F03FF01C0000A9
:104DFC006018703C102610221023F039E0180000C7
:104E0C00000000381030F03FF03F10300038000048
:104E1C00E03FF03F100010001000F03FE03F0000BA
:104E2C00803FC03F600030006000C03F803F00000A
:104E3C00C03FF03F7000C0017000F03FC03F000069
:104E4C003030F03CC00F0003C00FF03C303000009D
:104E5C000000003C103EF003F003103E003C00004C
:104E6C007038F030902110231026303C7038000040
:104E7C0010003000500090011003100CF03F0000A7
:104E8C0000080008000800080008000800080008D6
:104E9C000000000000007CFC800280020001000188
:104EAC0000020004000CF01FF03F000C0004000294
:104EBC0000018000C000E03FF03FC0008000000116
:104ECC001020102010201020102010201020102056
:104EDC00E000F00510051005E007F00310000000DD
:104EEC001020F03FE03F10021002F003E001000040
:104EFC00E003F00710041004100430062002000038
:104F0C00E001F00310061024F03FF03F1000000009
:104F1C00E003F00710051005100530072003000012
:104F2C0000001002F01FF03F1022003000180000AB
:104F3C00C803EC0724042404FC03F8070004000055
:104F4C001020F03FF03F20020004F007F0030000B7
:104F5C00000000001004F037F037100000000000D3
:104F6C00000018001C000404FC37F8370004000093
:104F7C001020F03FF03F8021C00370063004000089
:104F8C00000000001020F03FF03F10000000000077
:104F9C00F007F0070006F0030006F007F00700002A
:104FAC000004F007F00300040004F007F003000015
:104FBC00E003F007100410041004F007E0030000F5
:104FCC000404FC07FC0344044004C00780030000F5
:104FDC008003C00740044404FC07FC0304040000E5
:104FEC001004F007F0031006000400060003000094
:104FFC0000002002300790059004F00660020000CB
:10500C0000040004E01FF03F1004300420000000F6
:10501C00E007F00710001000E007F0071000000098
:10502C000000C007E00730003000E007C0070000B8
:10503C00E007F0073000E0003000F007E007000068
:10504C0010043006E003C001E00330061004000039
:10505C008007C407440044004400F807F007000030
:10506C0030067006D004900510073006300400009E
:10507C0080078004F03C1020D02FD02FD02FD02FC1
:10508C00D02FD02FD02FD02FD02FD02FD02FD02F1C
:10509C00D02FD02FD02FD02FD02F1020F03F0000AA
:1050AC0080078004F03C10201020102010201020CD
:1050BC0000000000000000000000000000000000E4
:1050CC0000000000000000000000000000000000D4
:1050DC002238C00411EB1040DFF8301431F8100006
:1050EC007047DFF82C14405C7047DFF82824106000
:1050FC00DFF824040223436020234360036002236F
:10510C0003601160E9E070B5DFF810444FF0333004
:10511C002060DFF80C542860DFF8FC63202030603E
:10512C0010203060022030600120E06000F0A9FB0C
:10513C000120206100F0A5FB0120E060052000F0BB
:10514C00A0FB0121FF20FFF7D0FF0821F320FFF780
:10515C00CCFFF320E860022070602020706030608B
:10516C00022030604FF480710120FFF7BEFF4FF436
:10517C00E0610220FFF7B9FF30210320FFF7B5FFF4
:10518C0040F202310820FFF7B0FF00210920FFF7A1
:10519C00ACFF00210A20FFF7A8FF4FF4F2611020AA
:1051AC00FFF7A3FF05211120FFF79FFF002112201D
:1051BC00FFF79BFF00211320FFF797FF642000F0FF
:1051CC0060FB41F2B0211020FFF78FFF322000F07E
:1051DC0058FB07211120FFF788FF322000F051FB0C
:1051EC008C211220FFF781FF4FF4B8511320FFF7E9
:1051FC007CFF1A212920FFF778FF322000F041FBB9
:10520C0000213020FFF771FF40F207542146312076
:10521C00FFF76BFF03213220FFF767FF4FF400719C
:10522C003520FFF762FF4FF483713620FFF75DFFE7
:10523C0000213720FFF759FF21463820FFF755FF93
:10524C004FF482713920FFF750FF4FF400713C206E
:10525C00FFF74BFF05213D20FFF747FF00215020B2
:10526C00FFF743FFEF215120FFF73FFF00215220B2
:10527C00FFF73BFF40F23F115320FFF736FF4FF48F
:10528C0027416020FFF731FF01216120FFF72DFF3F
:10529C0033219020FFF729FF40F233110720FFF74D
:1052AC0024FF3220BDE8704000F0EBBA10B5044684
:1052BC002020FFF71AFF21462120FFF716FF954803
:1052CC00222101609448022141602021416001604B
:1052DC00416001600221016010BD2021416001602C
:1052EC00704710B5044600210020FFF7DFFF4FF494
:1052FC0096308949874A202314604B600B60401E0E
:10530C00FAD110BD2DE9FE4F04460C9DFFF7CEFFE0
:10531C000E20814EDFF8FC919DF80810002914BF77
:10532C00BDF804804FF00008C9F80080202171609E
:10533C003160401EF0D1641C01E008346D1C2878EB
:10534C0000283BD00027A246704901EB0010A0F5C5
:10535C00087BBDF800101FFA8AF0FFF7A7FF297829
:10536C00202901D021290FD10020212901D1042F7E
:10537C0022D00E2142070DD59DF80820002A14BF1B
:10538C000022BDF8042002E0BBF90000F1E7C9F8E7
:10539C00002001E0C9F800802022726032604010C9
:1053AC00491EE7D17F1C0BF1020B0AF1010A082FF1
:1053BC00CFDB28782128C0D1241DBFE7A3E02DE93D
:1053CC00F14F82B0022401F12600ADF80400262032
:1053DC000090514D0026A4B2524800EB4408072718
:1053EC00B8F80090BDF8080000EB061A4FF0100B4F
:1053FC004846C0070CD5BDF804101FFA8AF0FFF719
:10540C0055FF44484FF478410160202068602860C3
:10541C005FEA690904D00AF1010ABBF1010BE7D17B
:10542C00641C761C08F102087F1ED9D14FF6FF765A
:10543C00BDF804003018ADF804000098401E009030
:10544C00C8D100240021A0B2FFF730FF314806601C
:10545C00202068602860EF21A0B2FFF727FF2D48BD
:10546C000660202068602860641C4FF4A0708442A1
:10547C00E8DB032440F23D170321A0B2FFF716FF2F
:10548C0024480660202068602860EC21A0B2FFF759
:10549C000DFF20480660202068602860641CBC4218
:1054AC00EADB00210020FFF701FFF02019490E6014
:1054BC00202169602960401EF8D103210320FFF7E9
:1054CC00F5FEEA2013490E60202169602960401E18
:1054DC00F8D103214FF49E70FFF7E8FEEA200D4946
:1054EC000E60202169602960401EF8D1002140F235
:1054FC003F10FFF7DBFEF02006490E6020216960AB
:10550C002960401EF8D103B0BDE8F08FEC4A0008CA
:10551C00BC6C00080C180140101401400410014030
:10552C0000180140E068000880B500F0E1F94FF484
:10553C00803000F0FDF900F014FADFF85413087015
:10554C00012828D1102000F0A5FA022000F098FACA
:10555C00002000F033FA002000F03CFA4FF4806099
:10556C0000F031FA4FF4804000F03FFA4FF4E011B4
:10557C004FF4803000F00BFA012000F010FA3920C3
:10558C0000F053FA0028FAD0022000F00BFA00F0D9
:10559C0010FA0828FBD10121012000F02BFA01217F
:1055AC0040F67D6000F02FFA012144F2070000F074
:1055BC0033FA002000F016FA01214FF40000BDE888
:1055CC00044000F029BA80B54FF480414FF00060E0
:1055DC0000F0ACFA4FF4C06000F064FA14208DF8BF
:1055EC00000001208DF8010000208DF80200012040
:1055FC008DF8030000A800F05AFA13208DF8000073
:10560C0000208DF801008DF8020001208DF80300B8
:10561C0000A800F04CFA1B208DF8000001208DF83A
:10562C00010000208DF8020001208DF8030000A875
:10563C0000F03DFA1D208DF8000001208DF80100CE
:10564C0000208DF8020001208DF8030000A800F066
:10565C002EFA0C208DF8000001208DF8010000209E
:10566C008DF8020001208DF8030000A800F01FFA4D
:10567C0001BD884888490160884941604FF6FF7137
:10568C00C1608748874A0260874A4260C160874888
:10569C00874A0260874A4260C16087488749016037
:1056AC00874941604FF67F71C16086484FF03331B6
:1056BC000160416084484FF490510160704710B50F
:1056CC0086B00020ADF800004FF48270ADF80200F7
:1056DC000020ADF804000220ADF806000120ADF862
:1056EC0008004FF40070ADF80A000820ADF80C006B
:1056FC000020ADF80E000720ADF81000734C00A987
:10570C00204600F027FA0121204600F03AFA06B0B4
:10571C0010BD6F48002101606E4900220A604FF4F1
:10572C00801242606C4A4A60002282628A620222C3
:10573C00026300220A634FF48052C2600022CA60E6
:10574C004A6842F001024A60426842F0010242603B
:10575C004A6842F008024A604A681207FCD4426860
:10576C0042F00802426042681207FCD44A6842F0D8
:10577C0004024A604A685207FCD4416841F00401B3
:10578C00416041684907FCD470475448942101603A
:10579C000021016301210162782181614FF40041F4
:1057AC0041644FF48441C160016841F00101016022
:1057BC004FF080400021816240F6FF61C16284217C
:1057CC0001604FF4405101624FF4F841C16101682E
:1057DC0041F00101016042480921816241F61F41FB
:1057EC00C1624FF461614163842101600221C16097
:1057FC00016841F0010101603A480721816284216E
:10580C0001600121016278218161016841F001018F
:10581C000160704738B504462C4D0221284600F033
:10582C00BEF90028F9D02146284600F0B4F9012130
:10583C00284600F0B4F90028F9D0284600F0ADF95C
:10584C00C0B232BD10B5214C0221204600F0A7F9A0
:10585C000028F9D0FF21204600F09DF901212046B7
:10586C0000F09DF90028F9D0204600F096F9C0B25E
:10587C0010BD1D48006800F48061481E8041C00FB7
:10588C0070471A49088008880028FCD1704700002E
:10589C003304002000080140808088888B4884886D
:1058AC00000C01401184888888B4B1BB0010014001
:1058BC0081881184848888880014014038883338A2
:1058CC0084888B8800180140040001400038004097
:1058DC00042801400424014000011000002C014068
:1058EC000004004000080040081401402C04002073
:1058FC0059480021C160016114214161002181617D
:10590C00C161016841F0010101604168534A1140D5
:10591C0041600168524A11400160016821F4802104
:10592C000160416821F4FE014160002181607047F3
:10593C0049490A6822F480320A600A6822F48022FB
:10594C000A60B0F5803F03D0B0F5802F04D07047CB
:10595C00086840F4803002E0086840F4A020086039
:10596C00704710B53F4C312000F05FF82070606834
:10597C00401C6060207810B96068FF28F3D131209A
:10598C0000F053F8401E8041C043C00F10BD364A92
:10599C00136823F47C131843084310607047334991
:1059AC000860704730490A68920850EA8200086023
:1059BC0070472D48006800F00C0070472A490A68AF
:1059CC0022F0F00203E028490A6822F4E062104356
:1059DC000860704724490A6822F4605242EAC00009
:1059EC00086070472249086070471F490A6822F412
:1059FC004042ECE71F4A0029116814BF084321EA12
:105A0C000000106070471C4A0029116814BF08433D
:105A1C0021EA000010607047184A0029116814BF71
:105A2C00084321EA00001060704741090A4A012925
:105A3C0008BF116803D002290CBF116A516A0122F8
:105A4C0000F01F0002FA00F00840401EFFE7804102
:105A5C00C043C00F70470000001002400000FFF868
:105A6C00FFFFF6FE040400200410024060004242D6
:105A7C00D800424214100240181002401C10024080
:105A8C0007490A6802F03802FFE70A600A68104307
:105A9C000860704702490A6822F01002F5E700001E
:105AAC0000200240264908432649086070472DE92A
:105ABC00F04105780121C2787AB3224A126802F4C7
:105ACC00E062C2F5E062120AAB10DFF8708058F8A1
:105ADC00237005F00305ED00FF26AE40B743447874
:105AEC00C2F1040E04FA0EFC90F802E00F2424FA22
:105AFC0002F202EA0E0242EA0C021201AA40324001
:105B0C003A4348F82320007842110F4B00F01F0055
:105B1C0001FA00F043F8220006E06811064A05F08D
:105B2C001F03994042F82010BDE8F081074A11404C
:105B3C00084307490860704780E100E000E400E09A
:105B4C000000FA050CED00E000E100E080FFFF1F13
:105B5C0008ED00E0028802F441520B881A434B888E
:105B6C001A438B881A43CB881A430B891A434B89E7
:105B7C001A438B891A43CB891A430280098A018202
:105B8C0070470029018812BF41F040014FF6BF72E7
:105B9C00114001807047818170478089704700896E
:105BAC000140481E8041C043C00F704781B04FF484
:105BBC00807000900098401E0090FBD101B070479F
:105BCC0010B5FFF77CFDDFF89C034FF480510160AA
:105BDC000A24FF20FFF71EFE641EFAD1BDE8104018
:105BEC0097E12DE9F047044688461646FF27DFF873
:105BFC0078532878401C287028780228FCD2DFF8CB
:105C0C0064934FF4805AC9F804A0FFF7CFFFFF222A
:105C1C004146182000F034F9002000F068F9A8B9CA
:105C2C00FF20FFF7F7FDFE20FFF7F4FD2EB114F86F
:105C3C00010BFFF7EFFD761EF9D1FFF703FEFFF71F
:105C4C0001FE00F03FF9052808BF00272EE02DE9E2
:105C5C00F047044688461646FF27DFF80C53287891
:105C6C00401C287028780228FCD2DFF8F8924FF4F8
:105C7C00805AC9F804A0FFF799FFFF224146112072
:105C8C0000F0FEF8002000F032F978B9FE2000F0A8
:105C9C002EF958B92EB1FFF7D5FD04F8010B761E7D
:105CAC00F9D1FFF7CFFDFFF7CDFD0027C9F800A014
:105CBC00FF20FFF7AFFD2878401E28703846BDE85E
:105CCC00F0872DE9F04184B00446FF25DFF894629B
:105CDC004FF480577760FFF769FFFF2200210920FE
:105CEC0000F0CEF8002000F002F9A0B9FE2000F080
:105CFC00FEF848B900AD4FF01008FFF7A3FD05F80A
:105D0C00010BB8F10108F8D1FF20FFF783FDFF204C
:105D1C00FFF780FD00253760FF20FFF77BFD9DF826
:105D2C000000800920709DF80000C0F383006070B3
:105D3C009DF8000000F00300A07000A84178E1700D
:105D4C0081782171C178617101790901E180417912
:105D5C00E28852EA1112E28001F00F01217281797E
:105D6C00C90961728179C1F38011A1728179C1F382
:105D7C004011E1728179C1F300112173002161732B
:105D8C00817901F003018902E181E189C27941EA5B
:105D9C008201E181017AE28952EA9112E281C1F336
:105DAC00C2012174017A01F007016174417A490939
:105DBC00A174417AC1F38201E174417A01F00301CB
:105DCC0049002175217D827A41EAD2112175817AAF
:105DDC00C1F384016175817A01F00301C900A175D9
:105DEC00A17DC27A41EA5211A175C17A01F01F015D
:105DFC00E175017BC9092176017BC1F34111617603
:105E0C00017BC1F38201A176017B01F003018900C2
:105E1C00E176E17E427B41EA9211E176417BC1F36E
:105E2C004011217700216177417B01F00101A177BD
:105E3C00817BC909E177817BC1F3801184F8201043
:105E4C00817BC1F3401184F82110817BC1F30011D7
:105E5C0084F82210817BC1F3810184F82310817BAB
:105E6C0001F0030184F82410C07B400884F825005D
:105E7C00012084F82600FFE7284604B0BDE8F08135
:105E8C001CB540F040008DF8000000AC080E6070AE
:105E9C00080CA070080AE070217162719DF8000076
:105EAC00FFF7B8FC6078FFF7B5FCA078FFF7B2FC01
:105EBC00E078FFF7AFFC2079FFF7ACFC6079FFF7D7
:105ECC00A9FC13BD38B54124FFF7BCFC00F01F053D
:105EDC002846052D05D00B2D18BF0D2D06D0641EA0
:105EEC00F2D1FFF7AFFC0028FBD0284632BD38B505
:105EFC00044640F6FF7502E0002D06D06D1EFFF73C
:105F0C00A1FCA042F8D1002D01D1FF2032BD002010
:105F1C0032BD38B5134C4FF480556560FFF746FE23
:105F2C00952200210020FFF7ABFF0120FFF7DFFFD8
:105F3C00002801D0FF2032BD2560FF20FFF76AFC4E
:105F4C006560FF2200210120FFF79AFF0020FFF778
:105F5C00CEFF0028F0D12560FF20FFF75BFC00206E
:105F6C0032BD0000100C01403404002080B586487E
:105F7C00017C022908D018D3042902D00CD305299E
:105F8C0013D1002101740BE08048C07B28280CD170
:105F9C00BDE8014000F09BB90121002000F0DAF8C7
:105FAC004FF440510220FEF7C3FC01BD38B57748D1
:105FBC00C47B0220FEF73FFD734D68820246D82158
:105FCC007348FEF77EFD287C10B1012803D005E054
:105FDC00BDE831400CE02A2C01D19DE0022000F0FC
:105FEC00DDF82421052000F06AF90021022097E059
:105FFC0038B5654D6A8A654C1AB16549204600F082
:10600C001CFA60686860A068A860688A1F2806D0BF
:10601C00022000F0C3F8002020601A2176E02068EE
:10602C005C4988426ED1607B20B9A07B401EC0B217
:10603C00102804D3022000F0B1F8242166E0E07BA4
:10604C0000284ED003282ED0042857D0082855D02D
:10605C000A2853D012282AD015284FD01A2830D00D
:10606C001B2828D01D2849D01E2826D0232830D004
:10607C00252832D0282838D02A283AD02F2839D0B1
:10608C0055283BD05A2820D0882837D08A2835D09C
:10609C008F2833D09E2831D0A8282FD0AA282DD0D5
:1060AC00AF282BD02EE0BDE8314000F0FEB8BDE8A3
:1060BC00314000F09BB800F006F9BDE8314000F02B
:1060CC0002B9BDE8314000F0E8B8BDE8314000F05D
:1060DC00E8B8BDE8314000F097B8BDE8314000F0B9
:1060EC00B1B8BDE8314000F069B9BDE8314000F00D
:1060FC00EEB811E0BDE8314000F032B9BDE83140F6
:10610C0000F047B9022000F049F82021052000F0EA
:10611C00D6F80021012003E0BDE8314000F0F6B8CC
:10612C00BDE8344016E010B50C4622469821FEF727
:10613C00B4FC21460120FEF75BFC30210120FEF768
:10614C00E5FB1148032101748168091B8160002162
:10615C00017310BD38B50C460B4D0F4929602873DF
:10616C000D2298212846FEF798FC0D210120FEF700
:10617C003FFC052028742CB1042028743021012008
:10618C00FEF7C4FB31BD0000E0030020AC0300208F
:10619C001C030020555342435553425380B518B14C
:1061AC00022807D00AD301BD10210120BDE804400C
:1061BC00FEF7ACBB10210120FEF7A8FB4FF4805179
:1061CC000220BDE80440FEF7B3BB50F8041B61B1DC
:1061DC0050F8042BD30744BFA9F101039A180023EC
:1061EC0042F8043B091FFAD1EFE770477D49087C60
:1061FC00C00744BF7C48052104D47C48C97C2529B0
:10620C0028BF2421FFF78FBF80B500F04EF920B9CD
:10621C007748022181703A21F8E076494A6876483D
:10622C00130E0371130C4371130A8371C271096845
:10623C000A0C42720A0A8272C1720C21BDE8044037
:10624C00FFF771BF10B500F030F968B9684802214A
:10625C0081703A21017301210120FFF77BFF00209F
:10626C00BDE81040FFF79ABF62494A68531E634865
:10627C001C0E04701C0C44701B0A8370521EC270DE
:10628C0009680A0E02710A0C42710A0A8271C17104
:10629C000821BDE81040FFF746BF04215848FFF71E
:1062AC0042BF08215748FFF73EBF80B54D48C17C1F
:1062BC00132928BF12214E48FFF735FF01BD4C4A68
:1062CC0090701173704701210020FFF743BF10B588
:1062DC004D4C2078A8B9282000F095F9002814D04E
:1062EC004048007B000644BF022020700BD40220E3
:1062FC00FFF754FF3E4805218170242101730121D1
:10630C0029E0022801D100F008F910BD10B53E4C6F
:10631C002078D8B92A2000F076F900281AD0314814
:10632C00007B000608D4012020704FF4405102205D
:10633C00BDE81040FEF7FCBA0020FFF72FFF2C48F9
:10634C000521817024210173002104E0012808BF7C
:10635C0000F01EF910BD0120BDE81040FFF7FABE99
:10636C0080B52048816829B9007C40075CBF0121B9
:10637C00002009D50220FFF711FF1D48052181706F
:10638C002421017300210120FFE7BDE80440FFF741
:10639C00E1BE80B51348816809B9002004E0007B98
:1063AC0000064CBF00200220FFF7F8FE1048052124
:1063BC0081702021017300210120E6E780B500F0F7
:1063CC0074F820B90A48022181703A211EE000F0CD
:1063DC0063F820B10648062181702821F6E70121D7
:1063EC00D3E70000AC030020F40300205800002089
:1063FC00D80000200C040020EC000020FC0300203E
:10640C0010010020F8000020F0030020017301218E
:10641C000120FFF79FFE0020BDE80240FFF7BEBE43
:10642C004AB38B0707D0521E11F8013B00F8013B11
:10643C0021D08B07F7D183071ED1103A07D330B484
:10644C00B1E83810103AA0E83810F9D230BC530734
:10645C0024BFB1E80810A0E8081044BF51F8043B71
:10646C0040F8043BD20724BF31F8022B20F8022B52
:10647C0044BF0B7803707047083A07D3B1E8081093
:10648C00083A40F8043B40F804CBF7D25307E4E752
:10649C007C480121417070477A48417819B100213C
:1064AC004170012070470020704710B5754CFFF704
:1064BC00E0F9002803D101202070002010BD2078C5
:1064CC00002809D0FFF77CFB0028F6D100F006F875
:1064DC000120607000202070012010BD10B56A4CA6
:1064EC002046FFF7EEFB207D217AE289012303FA97
:1064FC0001F1521C801C03FA00F050430A1201EB0C
:10650C00D251491248436149086061494FF4007205
:10651C000A6040025F49086010BD38B55E4D5F4CA3
:10652C00A06878B94FF4007221682846FFF78FFBFA
:10653C00402298212846FEF7B0FA4FF4E070A06094
:10654C0040200AE040229821E0684019FEF7A5FAA5
:10655C00A0684038A060E0684030E0604021012035
:10656C00FEF746FA30210120FEF7D0F920684030C2
:10657C00206060684038606049498A68403A8A60A7
:10658C0028B9A060E060206046480321017031BD4D
:10659C0038B5424C2069403043493F4A06E02369F4
:1065AC0011F8015B9D5423695B1C236123698342B1
:1065BC00F5D33E4D28882168411821606168081A7E
:1065CC006060C00509D1002020614FF40072206882
:1065DC00A0F500713048FFF704FB314881682A8828
:1065EC00891A81604FF440510220FEF7A1F96068CE
:1065FC0018B12C480078042804D100202061012116
:10660C00FFF7A8FD31BD1CB529494A7C8B7C1B04C6
:10661C0043EA0262CB7C42EA03220B7D1A430192CD
:10662C008A7DCB7D43EA02220092194A12681B4BE9
:10663C00019C54431C60009C62435A60154C2468B6
:10664C001B68D3189C420FD22A280CBF02200020B2
:10665C00FFF7A4FD21210520FFF731FE00210120C9
:10666C00FFF778FD002016BD8968914207D02A28D3
:10667C000CBF02200020FFF791FD2421EBE7012045
:10668C0016BD0000180100205C030020100400203F
:10669C000C040020280400201C010020CC03002046
:1066AC00E0030020F00300201C030020F203002074
:1066BC00AC03002077480068807A00B9704780B539
:1066CC000120FEF76FF90220FEF75CF972480021F9
:1066DC00017001BD80B571480068714988421CBFCA
:1066EC000220FFF75BFD01BD10B56A48016800226E
:1066FC008A726C494A604FF404426B4B1A800A60F0
:10670C0000686A49C9794172694CFEF7D9F8641E70
:10671C00FBD168480521017010BD10B566480021F9
:10672C0081720020FEF7E4F84FF400710020FEF7B0
:10673C00E6F820210020FEF7E9F818210020FEF7EA
:10674C0048F95E4C94F82C100020FEF758F95821AB
:10675C000020FEF73DF90020FEF708F90020FEF7B7
:10676C00FBF800210120FEF7CAF898210120FEF762
:10677C002FF920210120FEF7C9F800210120FEF796
:10678C00D7F800210220FEF7BAF8D8210220FEF734
:10679C0020F994F82C100220FEF731F94FF44051F7
:1067AC000220FEF7C5F800210220FEF7AFF894F89E
:1067BC002C100020FEF723F90020FEF7CDF8002066
:1067CC00FEF749F83548364901603348002101701D
:1067DC0010BD7047704780B52E4909680A7802F0E1
:1067EC007F02212A0DD1FE280BD14888002808D120
:1067FC008888002805D1C888012802D130480200B9
:10680C0001D1022002BD88610020488200F037F8D7
:10681C00002002BD80B51F4909680A7802F07F028A
:10682C00212A18D1FF2816D14888002813D188882E
:10683C00002810D1C88800280DD10120FEF7B2F82D
:10684C000220FEF79FF815481549016012480021F7
:10685C000170002002BD022002BD01B900B102206E
:10686C0070471849FDF78FBD1749FDF78CBD0949D5
:10687C000968C978154A02EBC101FDF784BD0028EF
:10688C0005D104480068012101820020704710489E
:10689C0070470000A0030020F0030020AC03002090
:1068AC0055534243405C00402E040020CC7100083C
:1068BC00A086010036040020840300200000002084
:1068CC008B68000800010020080100203000002027
:1068DC00240400200700260000FCFF00000000003C
:1068EC000000FEFF010000FFFF030000000000009D
:1068FC00FFFF0100C0FFFF0F000000000080FFFF42
:10690C000100E0FFFF0F0000000000C0FFFF0100CE
:10691C00F0FFFF1F0000000000C0FFFF0100F8FFA8
:10692C00FD1F0000000000C0FFFF0000F8FFFC1F6F
:10693C00000000000000FC0F0000F8FFF81F000032
:10694C0000000000FE0F0000F8FFF81F0000000020
:10695C000000FE070000C07FFC1F00FE00000000CE
:10696C00FE070000E07FFC1F80FF013E0000FF07D8
:10697C000000E07FFC0FC0FF033F0000FF0300009E
:10698C00F07FFE07E0FF837F0080FF030000F03FF5
:10699C00FF03F0F7837FF081FF030000F03FFF015E
:1069AC00F8F3C33FF881FF010000F8FF7F00FCF310
:1069BC00C33FFCC1FFFF0000F8FFFF00FCF9E33F01
:1069CC00FEC1FFFF0000F8FFFF03FEF9E33FFFC12C
:1069DC00FFFF0000FCFFFF0FFFF9E1BFFFE1FFFF2E
:1069EC000000FC8FFF0FFFF8F1DFFFE1FF7F0000DD
:1069FC00FC0FFE1FFFFCF0FFFFE1FF3F0000FE0F4E
:106A0C00FC9FFFFCF0FFFFE17F000000FE07FC9FF6
:106A1C007F7EF0FFFFF17F000000FE07F89F7F3FB5
:106A2C00F8FFFEF13F000000FE07F89FFFCFFB7F51
:106A3C00FEF13F000000FF03FC9FFFF7FB3FFEF958
:106A4C003F000000FF03FC9FFFFCF91FFEFB1F0033
:106A5C000000FF01FC8FFFFFF80FFEFB1F00000082
:106A6C00FF01FE87FF7FF807FEFB0F000000FF0011
:106A7C00FE07FF3FF803FCFB07000000FF00FF03CD
:106A8C00FF0FF803FCFB03000000FFC7FF00FC0333
:106A9C00F001F8F101000000F8FF7F000000000099
:106AAC00000000000000FCFF3F00000000000000A0
:106ABC0000000000FCFF0F000000000000000000C0
:106ACC000000FCFF030000000000000000000000BC
:106ADC00F8FF000000000000000000000000F03F84
:106AEC000000000000000000000000002DE9F84F3D
:106AFC004BF68F78674D48F60F7B40F68F77664CD8
:106B0C00DFF89891DFF898A121E0300404D52068D3
:106B1C0038402060FDF76DFE206808EA00002988E7
:106B2C00CA0448BF80F48050890448BF80F40050E8
:106B3C002060206848F6BF7108406988CA0648BFC3
:106B4C0080F01000890648BF80F020002060606C47
:106B5C00AAF80000000460D547F6FF706064BAF82C
:106B6C00000010F00F0089F8000035D1206800F407
:106B7C0040502880206800F030006880206808EAC7
:106B8C00000080F400502060206848F6BF71084077
:106B9C0080F020002060BAF80000C00620680FD4F6
:106BAC000BEA00002060FDF7CCFD20684FF4084193
:106BBC000842B1D0206838402060FDF78EFDABE76D
:106BCC0086B2300605D520680BEA00002060FDF780
:106BDC00B8FD300599D5EDE754F820108EB231048C
:106BEC000AD554F82010394044F820102D4901EBF7
:106BFC00800050F8040C80473006A8D599F80000A6
:106C0C0054F820100BEA010144F82010264901EB3E
:106C1C00800050F8040C804799E7BDE8F18F2DE90E
:106C2C00F84FDFF8809040F68F75DFF86CB01B4F93
:106C3C0047F6FF781A4CDFF874A024E0CAF80080FD
:106C4C00208800F00F0038705BF820108EB23104F1
:106C5C0009D55BF8201029404BF8201009EB800077
:106C6C0050F8040C804730060DD538785BF82010AE
:106C7C0048F60F7211404BF820100B4901EB8000C5
:106C8C0050F8040C8047DAF8000020800004D5D4BA
:106C9C00BDE8F18F20040020005C0040350400208A
:106CAC0030040020BC000020A0000020445C004008
:106CBC00647482909DA7AFB5B9B9B8B3ADA4998DE2
:106CCC0080726456493C3128211B1818191D232B3E
:106CDC00343F4B5764707C879199A0A4A7A7A6A3B7
:106CEC009D968E857A6F64594F463D36302C2A2AF4
:106CFC002B2E32394048515A646D767E858B909399
:106D0C00959594928E89827C746C645D554F494440
:106D1C00403D3C3C3D3F42464B51575D646A70756B
:106D2C007A7D8082838383817E7B77736E696460D6
:106D3C005B5854514F4E4D4E4E505254575A5D6104
:106D4C0064676A6C6E707172727171706E6D6B6962
:106D5C00686664636160605F5F5F5F606061616211
:106D6C0063636464646464646464646464646464D9
:106D7C0064646464646464646464646464646464C7
:106D8C0064646464646464646464646464646464B7
:106D9C006473818D97A0A5A9AAA9A7A29C948B82A4
:106DAC00786E645B524B443F3B3938383A3D404532
:106DBC004B51575E646A7075797D7F818282807FCA
:106DCC007C7975716D6864605C58555351504F4FA8
:106DDC0050515355585B5E6164676A6C6C6C060865
:106DEC007047FEE7FEE7FEE7FEE770477047704727
:106DFC0070477047704770477047704770477047CF
:106E0C0070477047704770477047704770477047BE
:106E1C007047704770477047FFF701BF00F078B8B4
:106E2C00704770477047704770477047704770479E
:106E3C0030B400202949086029490A8812B10A880F
:106E4C00521E0A8027498A780B7813B1581E087095
:106E5C0040E014230B7002B1521E234C23681B0517
:106E6C0058BF02201DD5214B1D682D0758BF03208C
:106E7C0017D51D68ED0658BF012012D51D686D068B
:106E8C0058BF04200DD52468A40558BF052008D58B
:106E9C001C68A40658BF062003D51B681B0618D413
:106EAC0007204B7898420FD1D2B292B9042828BF50
:106EBC0003220CD202280CD1CB7853B90123CB700E
:106ECC000B4B03241C7004E019220023CB70084BDD
:106EDC00187048708A7030BC704700001004004075
:106EEC002C0400201804002008140140080801405C
:106EFC0032040020704770477047704770477047E6
:106F0C007047704770477047704770477047000074
:106F1C0038B50C4C0C48016821800C4D21882A880E
:106F2C001140490505D54FF6FF310160084840680E
:106F3C008047208829880840000448BFFFF7D6FD09
:106F4C0031BD00BF30040020445C00402E04002002
:106F5C000000002010B582B0FEF7E6FAFEF733FB16
:106F6C00FEF787FBFFF7A1FA00F050F8FEF7D1FB14
:106F7C00FEF70BFCFEF7C7F80020FEF7B2F99621DE
:106F8C006E20FEF71CFA1D4C009400234FF4FC629B
:106F9C0057215020FEF7B6F904F11400009000239D
:106FAC004FF4FC6247216620FEF7ACF904F1200097
:106FBC00009000234FF6FF7227210820FEF7A2F95C
:106FCC0004F144000090002340F2FF7217210820C6
:106FDC00FEF798F90A4800680A49086001680A4AED
:106FEC00914204BF4068804704F154000090002394
:106FFC001F2217219620FEF785F9FEE7A8700008DE
:10700C001CC00008140400201303FAFA0448C061E1
:10701C000221017203490162034A42620868004777
:10702C0084030020000000207C00002030BF70474B
:10703C0020BF704740BF7047BFF36F8F7047BFF3DF
:10704C004F8F7047BFF35F8F704701DF7047EFF3CF
:10705C001480704780F31488BFF36F8F7047EFF381
:10706C000980704780F309887047EFF308807047F8
:10707C0080F30888704772B6704762B6704771B675
:10708C00704761B6704780F311887047EFF3128038
:10709C00704740BA704700BA704700005379737458
:1070AC00656D20496E697469616C697A696E6700F7
:1070BC00506C6561736520576169740044534F20AF
:1070CC00465720436F70797269676874202863296A
:1070DC002042656E4620323031302D323031310055
:1070EC004C49422076657220332E3133000000006B
:1070FC004E6F2041505020666F756E64000000008A
:10710C0010B5084979441C31074C7C441A34A1420F
:10711C0006D0081D0A68511888470146A142F8D1CB
:10712C0010BD00BF5800000078000000260353007B
:10713C0054004D006900630072006F0065006C0024
:10714C0065006300740072006F006E0069006300DC
:10715C00730000002603530054004D00330032002E
:10716C0020004D0061007300730020005300740078
:10717C006F00720061006700650000004FF0FFFFB8
:10718C001C0300001C0100200000000037D7FFFF8B
:10719C001C010000E80000000000002000000000BE
:1071AC001303AFAF1D6F00082B6C00089D64000823
:1071BC00EF5B00085B5C0008DD500008EF50000836
:1071CC0009022000010100803209040000020806B7
:1071DC005004070581024000000705020240000030
:1071EC001A03300030003000300030003000300026
:1071FC0030003000300030003100000000F009F8A1
:10720C00002801D0FFF77CFF0020FFF7A3FE00F061
:10721C0002F80120704780B500F002F800BF0000B2
:10722C000746384600F002F8FBE7000080B5C04680
:10723C00C046024A11001820ABBEFBE72600020034
:10724C0012010002000000408304205700010102DB
:10725C000301000010035300540020004D00610096
:10726C0073007300C046C046C046C046FFF7C6FF59
:10727C00FEF77CBEFEF79ABE04030904F56600080F
:10728C0027670008DF670008E1670008E36700086C
:10729C0021680008676800086F68000875680008B6
:1072AC007B680008000000004000000084720008A9
:1072BC00040000003871000826000000607100080E
:1072CC0026000000EC7100081A0000006072000833
:1072DC0010000000008002022000000044534F20E8
:1072EC0020202020534420466C617368204469732D
:1072FC006B202020312E3020CD480008C1660008BC
:10730C00CD480008CD480008CD480008E1660008CB
:10731C00CD480008CD480008CD4800087D72000813
:10732C00CD480008CD480008CD480008CD480008DD
:10733C00CD480008CD480008CD48000881720008EF
:10734C00CD480008CD480008CD480008CD480008BD
:10735C00CD480008700000000000000A000000008A
:10736C000000000000000000000000080000000009
:10737C000200000000060000000000004C72000833
:10738C0012000000CC710008200000000300000077
:08739C000301000001010000E3
:04000005080072710C
:00000001FF
