:020000040800F2
:10C00000C0480020490E0108190801081B08010852
:10C010001D0801081F08010821080108540E010825
:10C0200000000000000000000000000025080108DA
:10C03000230801080000000027080108290801085A
:10C040002B0801082D0801082F08010831080108F4
:10C0500033080108350801083708010839080108C4
:10C060003B0801083D0801083F0801084108010894
:10C070009F080108A1080108A3080108A5080108F4
:10C08000A7080108A9080108AB080108AD080108C4
:10C09000B5080108BD080108BF080108C10801086A
:10C0A000C3080108C5080108C7080108C908010834
:10C0B000CB080108CD080108250A0108270A010854
:10C0C000290A01082B0A01082D0A01082F0A010874
:10C0D000310A0108330A0108350A0108370A010844
:0CC0E000390A01083B0A01083D0A01086A
:10C0EC002DE9F843DFF8985C2878B8B10020287067
:10C0FC00DFF8904CE08B00280CBF4FF4FC611F2143
:10C10C0094A00090208800EB8000DFF87C2C801835
:10C11C0000F2B4330022002001F058F86878E0B146
:10C12C0000206870DFF85C4C8AA00090608800EBFF
:10C13C008001DFF8540C00EB410000F28013002268
:10C14C004FF6FF71022001F041F86088C0B201F097
:10C15C00D9FAE188608801F048FBA878C0B10020CA
:10C16C00A870DFF8204C7BA00090A08800EB800129
:10C17C00DFF8140C00EB410000F24823002240F2DF
:10C18C00FF71032001F022F8A088C0B201F002FB7D
:10C19C00E87838B10020E870DFF8E84BE188608877
:10C1AC0001F023FB2879002800F0EA800020287198
:10C1BC00DFF8D04B2089072800F2B180DFE800F0CF
:10C1CC000424364D646F7A99DFF80C1E0978002927
:10C1DC0000F0A580DFF8B46B0322DFF8000E0168D5
:10C1EC0006F1100001F054FC307CDFF8F41D01EB7B
:10C1FC008000FC30009006F1120300224FF6FF7114
:10C20C00042000F0E3FF96E0DFF8CC1D097800294C
:10C21C0000F08580DFF8746B0322DFF8C80D01682D
:10C22C0006F1100001F034FC4BA0E3E7DFF8A81D89
:10C23C000978002973D0DFF8546B0322DFF8A80DBE
:10C24C00016806F1100001F023FC307C00EB40008B
:10C25C00DFF88C1D4018F030CCE7DFF87C1D097836
:10C26C0000295CD0DFF8246B0322DFF8800D016815
:10C27C0006F1100001F0F6FA307C00EB4000DFF81C
:10C28C00601D4018F030B5E7DFF8641D097800290F
:10C29C0045D0DFF8F86A0322DFF8580DD0E7DFF855
:10C2AC00501D097800293AD0DFF8E06A0322DFF844
:10C2BC00E00ADCE7DFF8381D097881B3DFF8CC6AD7
:10C2CC000322DFF8340D016806F1100001F0CAFA00
:10C2DC00307C00EB4000DFF8081D4018F030009077
:10C2EC0006F1120300224FF6FF71042000F06EFFDE
:10C2FC0021E0DFF8FC1C097889B1DFF8906A032291
:10C30C00DFF8140E016806F1100001F0ABFA307C76
:10C31C0000EB4000DFF8C81C4018F0306AE70DA1B4
:10C32C000091DFF8BC1C51F8303000224FF6FF7141
:10C33C00042000F04BFFDFF8546A707A80B1F0797A
:10C34C0070B92089B179C0B2814207D000F056FE95
:10C35C0006E000BF000000002500000000F01AFD00
:10C36C00208C04280CD1D9A000902089DFF8701CF7
:10C37C0051F8303000224FF6FF71092000F026FFF3
:10C38C00687990B100206871DFF8F8496089DFF8AE
:10C39C00F849CEA1009104EB800101F2A0330022F8
:10C3AC0034F81010052000F011FFE87C20B30020B9
:10C3BC00E874DFF8D869DFF8CC490322E08CE18817
:10C3CC00401A6188DFF8C03903EB8101C968414329
:10C3DC0006F1100001F046FA307C00EB4000DFF86B
:10C3EC00001C4018F030009006F1120381A240F2BC
:10C3FC00FF71062000F0EAFEA87928B30020A8718E
:10C40C00DFF88049208C06281ED1DFF880690322D2
:10C41C00A0896188DFF8703903EB8101C968414359
:10C42C0006F1100001F034FB307C00EB4000DFF82B
:10C43C00B01B4018F030009006F112036EA24FF6BC
:10C44C00FF71092000F0C2FEE87980B10020E8718C
:10C45C00DFF83009C08900280CBF68A368A39BA033
:10C46C000090002240F2FF71012000F0AFFE287A0C
:10C47C00B8B100202872DFF80C49208C082810D1A4
:10C48C00DFF80419208A00280CBF01F2401301F2D6
:10C49C0048138EA0009000224FF6FF71092000F087
:10C4AC0095FEA87DB8B10020A875DFF8D848208C7F
:10C4BC00162810D1A18DC9B205F1380001F0D2FBBC
:10C4CC00DFF8000D009005F138034EA24FF6FF7116
:10C4DC00092000F07BFE687AB8B100206872DFF8A2
:10C4EC00A448208C092810D1618AC9B205F1380002
:10C4FC0001F0B8FBDFF8D00C009005F1380341A235
:10C50C004FF6FF71092000F061FEA87AB8B1002047
:10C51C00A872DFF87048208C0A2810D1A18AC9B201
:10C52C0005F1380001F09EFBDFF89C0C009005F142
:10C53C00380335A24FF6FF71092000F047FE687DE5
:10C54C00C8B100206875DFF83C08008C152812D1A2
:10C55C00DFF83418DFF8BC0D4078002814BF01F266
:10C56C00641301F2341359A0009000224FF6FF71AE
:10C57C00092000F02BFEE87D08B30020E875DFF8F9
:10C58C000448208C17281AD1E18D1EA44FF6FF7693
:10C59C00DFF8F47751B1C9B205F1380001F062FB54
:10C5AC0007F27010009005F1380303E047A00090EB
:10C5BC0007F2781322463146092000F007FE287E48
:10C5CC0068B300202876DFF8BC47208C182826D1C9
:10C5DC00218E0DA44FF6FF76DFF8AC77B1B1C9B25E
:10C5EC0005F1380001F03EFB07F27010009005F1E8
:10C5FC0038030FE0547200005B5300005E00000033
:10C60C005F000000530000004C0000002FA00090C1
:10C61C0007F2781322463146092000F0D7FDE87A5C
:10C62C0018B30020E872DFF85C47E08ADFF858673F
:10C63C0006EB8001DFF8E42CD1F8B4301360B43190
:10C64C00096C5160491C4908D160218C0B290CD113
:10C65C001EA10091C0EBC000304400F22433D7A2DD
:10C66C004FF6FF71092000F0B1FD287BA8B3002024
:10C67C002873DFF81047208C0C282ED1A0880921B4
:10C68C0090FBF1F7DFF80467DFF8FC860322218BBF
:10C69C0001F66A31A38BC91A07EBC703C01AC0B2E3
:10C6AC0008EB8000C06D414306F1100001F0DAF890
:10C6BC00307CF9B2084400EB4000404400F2943066
:10C6CC00009006F11203BEA202E000BF00000000C1
:10C6DC004FF6FF71092000F079FD687B88B30020CC
:10C6EC006873DFF8A046208C0D282AD1A088092178
:10C6FC0090FBF1F7DFF89466DFF88C860322618BF0
:10C70C0001F66A31A38BC91A07EBC703C01AC0B272
:10C71C0008EB8000C06D414306F1100001F0A2F857
:10C72C00307CF9B2084400EB4000404400F29430F5
:10C73C00009006F11203A3A24FF6FF71092000F03E
:10C74C0045FDA87B78B30020A873DFF83846208C11
:10C75C000E2828D1A088092190FBF1F7DFF82C6670
:10C76C00DFF824860322A18BA1F5406107EBC703F8
:10C77C00C01AC0B208EB8000C06D414306F1100036
:10C78C0001F070F8307CF9B2084400EB40004044F2
:10C79C0000F29430009006F11203DCA24FF6FF7108
:10C7AC00092000F013FD287C60B3DFF8D845A08881
:10C7BC00092190FBF1F700212974DFF8D065DFF82F
:10C7CC00C8850322218B638BC91A07EBC703C01AD8
:10C7DC00C0B208EB8000C06D414306F1100001F0BF
:10C7EC0057F9307CF9B2084400EB4000404400F2A9
:10C7FC009430009006F11203C5A240F2FF7108209C
:10C80C0000F0E4FC687E30B300206876DFF87445F5
:10C81C00208C19281FD1DFF8746503226088DFF89B
:10C82C00681501EB8000C068618E6439414306F1E4
:10C83C00100001F017F8307C00EB4000DFF8A01777
:10C84C004018F030009006F11203D8A24FF6FF7199
:10C85C00092000F0BBFCA87ED8B10020A876DFF838
:10C86C002445208C1A2814D1DFF82065B4F9340043
:10C87C00A0F1640109B206F1100001F0E2F8CCA0BD
:10C88C00009006F11203CBA24FF6FF71092000F0C5
:10C89C009DFC687C002842D000206874DFF840972B
:10C8AC00DFF8E8644FF6FF77DFF8DC84DFF8D44478
:10C8BC00208C112819D10322608CE188401A6188E0
:10C8CC0008EB8101C968414306F1100000F0CAFF72
:10C8DC00307C00EB40004844F030009006F112032D
:10C8EC00C6A23946092000F071FC0322A08C618C91
:10C8FC00401A618808EB8101C968414306F11000B8
:10C90C0001F0C6F8307C00EB40004844F030009059
:10C91C0006F11203BAA23946072000F057FCA87C96
:10C92C00002842D00020A874DFF8B496DFF85C64CD
:10C93C004FF6FF77DFF85084DFF84844208C12283C
:10C94C0019D10322A08CE188401A618808EB81017F
:10C95C00C968414306F1100000F084FF307C00EB05
:10C96C0040004844F030009006F11203A5A239466D
:10C97C00092000F02BFC0322A08C618C401A6188EA
:10C98C0008EB8101C968414306F1100001F080F801
:10C99C00307C00EB40004844F030009006F112036C
:10C9AC0097A23946072000F011FC287D002800F0E2
:10C9BC00AA8000202875DFF8CC4305E046722E00D3
:10C9CC005432000054310000A08B40F66931401AFB
:10C9DC00DFF8B86330844FF4967180B2884228BF78
:10C9EC00318415D202283CBF0120308410D3DFF8EB
:10C9FC0024198A7B511E8941C943C90F40F21E7507
:10CA0C002A4601F09AFB2A460021308C01F0A5FC45
:10CA1C00208C0E2802D101F0A6FD01E001F079FD79
:10CA2C004EF280720021E08801F0B2FBDFF8E4588E
:10CA3C00687B411E8941C943C90F4EF61C763246AC
:10CA4C00608B01F07AFB287B411E8941C943C90FD9
:10CA5C003246208B01F071FB32460021608B01F0D5
:10CA6C007CFC32460021208B01F077FCA87C411E17
:10CA7C008941C943C90F3246A08C01F030FB687C58
:10CA8C00411E8941C943C90F3246608C01F027FB16
:10CA9C0032460021A08C01F07BFB32460021608CD9
:10CAAC0001F076FBE87C50B948F230752A4600213B
:10CABC00E08C01F0E6FA2A460021E08C21E0A8790E
:10CACC0008BB48F230752A460021E08CA38918185F
:10CADC0080B201F0D6FA2A460021E08CA389C01A54
:10CAEC0080B201F0CEFA2A460021E08CA3891818F6
:10CAFC0080B201F04DFB2A460021E08CA389C01ABC
:10CB0C0080B201F045FBBDE8F183000054500000F9
:10CB1C005B54000038B5DFF8844B48F230752A4678
:10CB2C000121E08C01F0ADFA2A460121E08C01F0E4
:10CB3C002FFB2A460121E08CA389181880B201F042
:10CB4C0027FB2A460121E08CA389C01A80B201F090
:10CB5C001FFB2A460121E08CA389181880B201F032
:10CB6C0090FA2A460121E08CA389C01A80B2BDE854
:10CB7C00384001F086BAF8B50024DFF8285B40F2A3
:10CB8C002F1640F2FF7755F80C0B009000233A4615
:10CB9C0004EB84008000C0F1CA0109B2304601F0F8
:10CBAC00F5FD641C092CEED3F1BD00004F660000AE
:10CBBC002500000052610000F8B574480021417254
:10CBCC0001F0EFF80024DFF8E05ADFF8E06A4EF2EB
:10CBDC0080773B4615F8012B16F8011B204601F017
:10CBEC00CCF9641C4FF49670A4B28442F1D3DFF8F4
:10CBFC00C00A407808B901F072FFF1BD563200004E
:10CC0C005B560000563100002DE9F8435F4CDFF80D
:10CC1C00946A207B00EB400106EB8100007A2072C5
:10CC2C00E071A071DFF8B88308EBC000001D01E0D3
:10CC3C00791EE171E779002F1CBF10F80819012942
:10CC4C00F6D1207A1D2807D208EBC001097B0129F7
:10CC5C001CBF401C2072F4D100212171B8420EDBA4
:10CC6C0058F8370002F04AFA2179C0B2814238BF35
:10CC7C00014621717F1CFFB2207AB842F0DAE079CC
:10CC8C0010B92179093121712179C900083121713B
:10CC9C00217A081A00EBC00148001A306071227921
:10CCAC004FF49470801A2080217B637901EB81070B
:10CCBC00BF00C7F1D107B7EB530767803FB2182FFE
:10CCCC00BCBF18276780B4F902C09C44BCF1D90FD3
:10CCDC0008DB67887F1E67800FFA87FC9C44BCF1D9
:10CCEC00D90FF6DA01EB410706EB8701097AA1713E
:10CCFC0046F20C310091B4F9021001F0B2FC6088DC
:10CD0C0061790818A0F11406E779207AB8422EDB75
:10CD1C00A079B8420CBF0125002558F83790CDF802
:10CD2C0000902B464FF0FF3231B22088001D00B22C
:10CD3C0001F02CFD012D14D1484602F0DFF94FF023
:10CD4C00FF3100910E2321790839C0B2A1EBC0024A
:10CD5C0012B231B2258805EBC000001D00B201F003
:10CD6C005CFC123E7F1CFFB2207AB842D0DA012064
:10CD7C006072E07908B900F00DF8BDE8F1830000AD
:10CD8C006C180020A81800204804010890380020D6
:10CD9C005C3800202DE9F04F83B0DFF8184920886B
:10CDAC002179081845380FFA80F808F128066088B0
:10CDBC0061790818A0F11407E57908F11000ADF8B5
:10CDCC00040008F10809DFF810A2207AA842C0F28A
:10CDDC00FF80A079A8420CBF4FF0010B4FF0000B65
:10CDEC009AF8000048B982480078002800F0CB80FF
:10CDFC00E079281A0528C0F2C680E079281A07289D
:10CE0C0000F2DF80DFE800F0042236556D7089A750
:10CE1C0003227248016804F1100000F039FE04F19D
:10CE2C00120000905B464FF0FF3239B20FFA89F0D6
:10CE3C0001F0ACFC207C6A4901EB8000FC300090D6
:10CE4C005B464FF0FF3239B230B2B8E0032265488E
:10CE5C00016804F1100000F01BFE04F112000090B8
:10CE6C005B464FF0FF3239B20FFA89F001F08EFCBD
:10CE7C00AAA0E4E703225C48016804F1100000F06A
:10CE8C0007FE04F1120000905B464FF0FF3239B2FE
:10CE9C000FFA89F001F07AFC207C00EB400050493D
:10CEAC004018F03000905B464FF0FF3239B230B290
:10CEBC0085E003224D48016804F1100000F0D2FC1B
:10CECC0004F1120000905B464FF0FF3239B240463D
:10CEDC0001F05CFC207C00EB400041494018F03034
:10CEEC00ADE703224348C7E70322DFF8CC0701680C
:10CEFC0004F1100000F0B6FC04F1120000905B4647
:10CF0C004FF0FF3239B2404601F040FC207C00EB80
:10CF1C00400033494018F03091E70322364801684D
:10CF2C0004F1100000F09EFC04F1120000905B462E
:10CF3C004FF0FF3239B2404601F028FC207C00EB68
:10CF4C00400027494018F03000905B464FF0FF320C
:10CF5C0039B230B233E003226F48016804F110009B
:10CF6C0000F080FC04F1120000905B464FF0FF32A1
:10CF7C0039B2404601F00AFC207C00EB4000184915
:10CF8C004018F0305BE7BBF1000F0CBF46F20C30E1
:10CF9C004FF0FF3000900E23208821790818001FD5
:10CFAC00A0EB080212B239B2404601F036FBDAA00F
:10CFBC0000905B464FF0FF3239B2BDF9040001F02E
:10CFCC00E5FB123F681CC5B2207AA842BFF601AF40
:10CFDC0003B0BDE8F08F000037380020483800203F
:10CFEC00400A01084C3800205438002058380020E2
:10CFFC00383800205038002060380020F8B506463C
:10D00C00DFF8B046FF2E02D0E079864201D2267AB4
:10D01C0003E0217AB14238BF0646A0796188627973
:10D02C005118E279121A02EBC20301EB4301A1F190
:10D03C001407DFF8885655F83000009000234FF0A5
:10D04C00FF3239B22088001D00B201F09FFBA0799D
:10D05C0055F8300002F052F8C0B246F20C31009193
:10D06C000E2321790839A1EBC00212B239B22788FC
:10D07C0007EBC000001D00B201F0CFFAA671A07939
:10D08C00618862795118E279121A02EBC20301EB42
:10D09C004301A1F1140655F83000009001234FF024
:10D0AC00FF3231B22088001D00B201F06FFBA07975
:10D0BC0055F8300002F022F8C0B24FF0FF31009169
:10D0CC000E2321790839A1EBC00212B231B22688A5
:10D0DC0006EBC000001D00B201F09FFAA079DFF84A
:10D0EC00BC65E17901B93081217B01EB4102DFF8AC
:10D0FC00B41501EB82010872C7A1009155F83030CC
:10D10C0000224FF6FF71092000F060F8A07905EBC2
:10D11C00C00040793084F1BD643800202500000047
:10D12C002DE9F04182B00746FF2F08BF082702D037
:10D13C00092F28BF0027DFF87C45207B40F22F18F1
:10D14C00DFF8605500EB400189004959009100233C
:10D15C0040F2FF7200EB80018800C0F1CA0109B2F5
:10D16C00404601F013FB07EB470086007059009016
:10D17C0001234FF0FF3207EB87008000C0F1CA019A
:10D18C0009B2404601F002FB2773DFF83075A2A00C
:10D19C0000907019007A57F8303000224FF6FF716A
:10D1AC00092000F013F8207B00EB400105EB810017
:10D1BC00007A07EBC0004079DFF8E0140884BDE882
:10D1CC00F38100009C050108A40501082DE9F84F26
:10D1DC000C4617461D46002600EB40014FEA410A5B
:10D1EC00DFF8DCB40AEB0B0846F20C39D7B1384641
:10D1FC0001F084FFC6000097002322B2B8F9021098
:10D20C003AF90B0001F0C2FACDF800900E2304227B
:10D21C00B8F902103AF90B00301800B201F0FDF920
:10D22C00301D86B2284601F069FFC7000095002327
:10D23C0022B2B8F902103AF90B00301800B201F022
:10D24C00A5FA0A9801F05AFFC5000A98009000232D
:10D25C0022B2B8F902103AF90B003018381800B2A3
:10D26C0001F094FACDF800900E2398F80400801B7E
:10D27C00C01B421B12B2B8F902103AF90B0030185D
:10D28C003818281800B201F0C8F9BDE8F18F38B58C
:10D29C00DFF830440020A07200F0B8FA002835D036
:10D2AC001C4D0120687001F003FC01F059FF48BBD4
:10D2BC00DFF8E803818AC9B204F1380000F0D2FC2F
:10D2CC0096A204F13801DFF8000402F01BF8A8B9AB
:10D2DC0002F005F970B94FF49672DFF8F013DFF82D
:10D2EC00F00302F04BF90020687001F0F8FB01200C
:10D2FC00A07231BD48A00090636B0AE046A000907C
:10D30C00236A06E044A00090636A02E042A0009009
:10D31C00A36A47E0581900202A2A00002808004078
:10D32C0038B5DFF8A0430020607200F06FFA0028D7
:10D33C0035D001F015FF70BBDFF86053698AC9B2B4
:10D34C0004F1380000F08EFC74A204F13801DFF80F
:10D35C00780301F0D7FFD0B9DFF878030021017012
:10D36C0041704FF49672DFF84013801C02F006F9FE
:10D37C0002F0BEF838B9688AFF2801D2401C6882D6
:10D38C000120607231BD24A00090E3690AE022A064
:10D39C000090236A06E020A00090636A02E01EA0C1
:10D3AC000090A36A00224FF6FF710920FFF70EFFD1
:10D3BC0031BD38B5C34C0020A07500F027FA38B346
:10D3CC0001F0CEFE00BBB54DA98DC9B204F13800F9
:10D3DC0000F048FC76A204F13801BF4801F092FF3E
:10D3EC0070B902F018F838B9A88DFF2801D2401C8A
:10D3FC00A8850120A07531BD07A00090E3690AE063
:10D40C0005A00090236A06E003A00090636A02E086
:10D41C0001A00090A36AC5E70000000070B582B0BF
:10D42C00A84C0020E0759D4DE88D00282DD000F013
:10D43C00EDF930B301F094FEE0B9E98DC9B204F115
:10D44C00380000F00FFC94A204F138019E4801F062
:10D45C0059FF58B900F088F802F04AF848B390A088
:10D46C000090E36900224FF6FF711FE08CA0009042
:10D47C00236AF7E78AA00090636A00224FF6FF71D7
:10D48C0014E087A00090A36AECE700F06DF84FF66B
:10D49C00FF7583A602F046F80428009602BFE36AE3
:10D4AC000022294602D0236B002229460920FFF7CF
:10D4BC008DFE73BD38B5794C208E002828D0814D57
:10D4CC000020287600F0A2F9F0B101F049FEB8B9BD
:10D4DC00218EC9B205F1380000F0C4FB6EA205F133
:10D4EC003801794801F00EFF30B901F0F8FF88B12E
:10D4FC006BA000906B6B06E069A000902B6A02E0B9
:10D50C0067A000906B6A4DE765A00090AB6AFAE7E4
:10D51C0001F0FEFFBDE831404CE0000044415400F6
:10D52C0070B402461346654C04EBC3052D1D00E098
:10D53C005B1EDBB2002B1CBF15F80869012EF7D15E
:10D54C00D2B21D2A06D204EBC2052D7B012D18BFC9
:10D55C00521CF5D1182908BF1421994202D38A42D2
:10D56C0028BF084670BC704710B55A4C302020704C
:10D57C000020607036224949A01C01F0FFFF1B22DD
:10D58C004B4904F1400001F0F9FF04F262005349E9
:10D59C00032211F80C3B00F8013B11F80C3B00F88E
:10D5AC00013B11F80C3B00F8013B521EF1D110BDB0
:10D5BC00424D50002DE9F8433E4CDFF8E890207BBB
:10D5CC0000EB400109EB8100067A424F3878302895
:10D5DC0023D1787808BBFFF79DFA3622B91C2F4867
:10D5EC0001F0CCFF1B2207F14001314801F0C6FFCE
:10D5FC0007F2620709F10808092517F8011B98F8CA
:10D60C000000FFF78DFF08F80C0B6D1EF5D1207B89
:10D61C0000EB400109EB81000672BDE8F14380B5D7
:10D62C00FF224FF496712E4801F0E0FFFF224FF4D9
:10D63C0096711D4801F0DAFFFF224FF496711B48DA
:10D64C0001F0D4FF01221B211E4802F013F81348ED
:10D65C000021C18303214181818B40F6014291421B
:10D66C0024BF4FF440618183124900224A72097B26
:10D67C0001EB41020B4901EB8201097A0F4A02EBE3
:10D68C00C1014979018400F08CFB0948407808B944
:10D69C0001F025FA01BD000043464700A818002000
:10D6AC000000000000180020DC35002008370020A6
:10D6BC0058190020903800205C380020400A0108DE
:10D6CC00BC0B01086C180020040F010882310020EB
:10D6DC0080330020803100200C0F01080818002036
:10D6EC00B034002080B50B208DF8000001208DF89F
:10D6FC0001008DF802008DF8030000A801F0D6FFA0
:10D70C0001BD000012283AD8DFE800F00A0A0A0A24
:10D71C001515151E1E1E2222222B2B2B32323200E7
:10D72C00414801210160414920220A6010220A600F
:10D73C000221016070473C48012101603B492022D5
:10D74C000A6010220A6022E0374801214160F5E7A7
:10D75C00354801210160354920224A6010220A60B7
:10D76C0015E0314801214160304920224A60E8E748
:10D77C002D48012101602D4920220A6005E02A482C
:10D78C0001214160294920224A6010224A6002216D
:10D79C00416070472649274A32F810200A60264A11
:10D7AC0032F810004860401C00EBD0704010C8608C
:10D7BC0070472248002101602148017070471F48C2
:10D7CC00002101601E4900220A701E4A00231370BA
:10D7DC0001220A701C4981601C49C1604FF48061B0
:10D7EC00416043F2835101607047C1F1F001184A66
:10D7FC0032F8102051430A1101EBD261154A32F96B
:10D80C00100000EB61101449086070471348006861
:10D81C0000F48061481E8041C00F70471049088099
:10D82C0008880028FCD17047100C014010100140F2
:10D83C00282C01405C0C0108880C010808000240EF
:10D84C0034380020BC3800204C24014080190020C2
:10D85C000819002030190020400000400814014035
:10D86C00B8380020F0B4831C941CE4B291B9202188
:10D87C001970302103F8011F2E2103F8011F3021EC
:10D88C0003F8011F03F8011F002103F8011F0170A9
:10D89C000521D3E00129A4BF202503F8015B03DA9D
:10D8AC002D2503F8015B49420E46002505270BE0A8
:10D8BC004FF00A0CB6FBFCF66D1CEDB2AA423CBF55
:10D8CC0007EB870C4FEA4C070A2EF1D295420AD38C
:10D8DC0079180E4600250A2E05D30A27B6FBF7F653
:10D8EC006D1C0A2EF9D2EDB2032695FBF6F60670E6
:10D8FC00092D00F28C80DFE805F087796D5C4F42D2
:10D90C0030231605D24D91FBF5F606F1300703F8DE
:10D91C00017B521ED2B2002A79D005FB16112E259E
:10D92C0003F8015B0025CB4E91FBF6F707F1300CA9
:10D93C0003F801CB521ED2B2002A68D006FB171195
:10D94C00C54E91FBF6F707F1300C03F801CB521ED4
:10D95C00D2B2002A5BD006FB1711C04E91FBF6F732
:10D96C0007F1300C03F801CB521ED2B2002A4ED074
:10D97C0006FB17111DB12E2503F8015B0025B84ECF
:10D98C0091FBF6F707F1300C03F801CB521ED2B223
:10D99C00002A3CD006FB171142F2107691FBF6F7E9
:10D9AC0007F1300C03F801CB521ED2B27AB306FB4E
:10D9BC0017114FF47A7691FBF6F707F1300C03F858
:10D9CC0001CB521ED2B212B306FB171115B12E2584
:10D9DC0003F8015B642591FBF5F606F1300703F8BB
:10D9EC00017B521ED2B292B105FB16110A2591FB96
:10D9FC00F5F505F1300603F8016B521ED2B232B1C7
:10DA0C0005EB8502A1EB4201303103F8011B211813
:10DA1C00891C8B420ED21A46841C944205D212F8F1
:10DA2C00015C02F801599442F9D3202414705B1C58
:10DA3C008B42F0D300211970811C591A4170F0BC33
:10DA4C007047801CCA074CBF35223022002903D5F1
:10DA5C002D2300F8013B494209B201EBD171C903F6
:10DA6C0009140B464FF00A0C93FBFCFC0A29A4BFCB
:10DA7C000CF1300100F8011B0CEB8C01A3EB410104
:10DA8C00303101702E2100F8011F00F8012F01E147
:10DA9C00F0B5831C541CE4B279B9302119702E21D5
:10DAAC0003F8011F302103F8011F03F8011F0021A7
:10DABC0003F8011F01700421C8E00E46002505275C
:10DACC004FF00A0C09E0B6FBFCF66D1CEDB2AA4255
:10DADC003CBF07EB870E4FEA4E070A2EF3D2954256
:10DAEC0009D379180E4600250A2E04D3B6FBFCF692
:10DAFC006D1C0A2EFAD2EDB2032695FBF6F60670D3
:10DB0C00092D00F28C80DFE805F087796D5C4F42BF
:10DB1C00302316054E4DB1FBF5F606F1300703F830
:10DB2C00017B521ED2B2002A79D005FB16112E258C
:10DB3C0003F8015B0025474EB1FBF6F707F1300CFB
:10DB4C0003F801CB521ED2B2002A68D006FB171183
:10DB5C00414EB1FBF6F707F1300C03F801CB521E26
:10DB6C00D2B2002A5BD006FB17113C4EB1FBF6F784
:10DB7C0007F1300C03F801CB521ED2B2002A4ED062
:10DB8C0006FB17111DB12E2503F8015B0025344E41
:10DB9C00B1FBF6F707F1300C03F801CB521ED2B2F1
:10DBAC00002A3CD006FB171142F21076B1FBF6F7B7
:10DBBC0007F1300C03F801CB521ED2B27AB306FB3C
:10DBCC0017114FF47A76B1FBF6F707F1300C03F826
:10DBDC0001CB521ED2B212B306FB171115B12E2572
:10DBEC0003F8015B6425B1FBF5F606F1300703F889
:10DBFC00017B521ED2B292B105FB16110A26B1FB63
:10DC0C00F6F505F1300603F8016B521ED2B232B1B3
:10DC1C0005EB8502A1EB4201303103F8011B211801
:10DC2C00891C8B420ED21A46841C944205D212F8DF
:10DC3C00015C02F801599442F9D3202414705B1C46
:10DC4C008B42F0D300211970811C591A4170F0BD20
:10DC5C0000CA9A3B00E1F5058096980040420F00FF
:10DC6C00A0860100642291FBF2F303F1300C80F8E2
:10DC7C0000C002FB1311C9B20A2291FBF2F202F1AD
:10DC8C00300300F8013F02EB8203A1EB430130317A
:10DC9C0000F8011F002100F8011F70474FF40042EB
:10DCAC00114600E0114301FB01F3984238BF51408B
:10DCBC005208F7D188B27047DFF8742B1060DFF888
:10DCCC00740B022343602023436003600223036030
:10DCDC00116045E0F8B504460D4616461F46B1B234
:10DCEC005020FFF7E9FFB9B25120FFF7E5FFA1B2D1
:10DCFC005220FFF7E1FFA9B25320FFF7DDFFB1B2CD
:10DD0C002020FFF7D9FFA1B22120FFF7D5FFDFF8C4
:10DD1C00200B22210160DFF81C0B02214160202125
:10DD2C00416001604160016002210160F1BD10B5EC
:10DD3C0004462020FFF7C0FF21462120FFF7BCFF3F
:10DD4C00DFF8EC0A22210160DFF8E80A02214160C9
:10DD5C00202141600160416001600221016010BD21
:10DD6C00202141600160704710B582B046F20C343E
:10DD7C00009413234FF4A0720021002000F04DFCFE
:10DD8C000094CA23132211464FF4977000F045FCFF
:10DD9C00009413234FF4A072DD21002000F03DFC11
:10DDAC0013BD2DE9F84300200090CA234FF497725D
:10DDBC00132100F032FC012740F22D194FF0050819
:10DDCC00DFF8704ADFF8685A48F25046142138469A
:10DDDC00FFF7ADFF2E60202060602060DB2138460D
:10DDEC00FFF7A5FF2E60202060602060781E90FB5E
:10DDFC00F8F101EB8101401A25D1012F23D04FF40A
:10DE0C00967087421FD015213846FFF790FF2E6081
:10DE1C00202060602060DA213846FFF788FF2E60F2
:10DE2C0020206060206016213846FFF780FF2E60AE
:10DE3C00202060602060D9213846FFF778FF2E60E3
:10DE4C002020606020607F1CBFB24F45BED31527D9
:10DE5C0039460120FFF76BFF2E60202060602060A8
:10DE6C0039464FF49670FFF762FF2E6020206060F9
:10DE7C002060A7F1140090FBF8F101EB8101401A2E
:10DE8C0021D139460220FFF752FF2E60202060601E
:10DE9C002060394640F22B10FFF749FF2E602020FE
:10DEAC006060206039460320FFF741FF2E60202080
:10DEBC006060206039464FF49570FFF738FF2E6094
:10DECC002020606020607F1CDB2FC1D34FF02D0819
:10DEDC0040F229190627B8F1780F11D1772138466D
:10DEEC00FFF725FF2E6020206060206078213846E7
:10DEFC00FFF71DFF2E60202060602060792100E07C
:10DF0C0041463846FFF713FF2E60202060602060EA
:10DF1C007F1DBFB24F45DED308F11908B8F1C40F0D
:10DF2C00D8D31A2740F215194FF01908972F4146EC
:10DF3C0011D19620FFF7FBFE2E6020206060206040
:10DF4C0041469720FFF7F3FE2E6020206060206092
:10DF5C004146982000E03846FFF7E9FE2E6020206D
:10DF6C006060206008F10508B8F1D80FDED31937CE
:10DF7C00BFB24F45D8D3BDE8F1832DE9F843044631
:10DF8C000F46164698460025FF2F08BF3746FF2E32
:10DF9C0008BF3E46FF2F30D0BE4202D230463E462E
:10DFAC000746DB2E28BFDA26152F38BF1527641C31
:10DFBC00DFF8849899F8090050B1B9F90000A4B2BF
:10DFCC00844205DB99F8042010188442B8BF01255F
:10DFDC00BE4212D345B1B9F90200874204DB99F86D
:10DFEC0005201018874204DB42463946A0B201F0E6
:10DFFC00AFFB7F1CBFB2BE42ECD2BDE8F1832DE972
:10E00C00F84304460F46164698460025FF2F08BFD6
:10E01C003746FF2E08BF3E46FF2F30D0BE4202D2FD
:10E02C0030463E460746DB2E28BFDA26152F38BF72
:10E03C001527641CDFF8009899F8090050B1B9F95C
:10E04C000000A4B2844205DB99F804201018844225
:10E05C00B8BF0125BE4212D345B1B9F902008742BF
:10E06C0004DB99F805201018874204DB4246394638
:10E07C00A0B201F01CFC7F1CBFB2BE42ECD2BDE8CA
:10E08C00F1832DE9F84380460D4691460024DFF8D4
:10E09C00A877787A40B1B7F90200804504DB7A7929
:10E0AC0010188045B8BF012403263CB1B7F9000015
:10E0BC00864203DB39790818864209DB002D4A4673
:10E0CC004146B0B202D101F043FB01E001F0EFFB9D
:10E0DC00B61C4FF496708642E7DBBDE8F1832DE960
:10E0EC00F84380460D4691460024DFF84C77787A49
:10E0FC0040B1B7F90200804504DB7A7910188045ED
:10E10C00B8BF012406263CB1B7F90000864203DBF8
:10E11C0039790818864209DB002D4A464146B0B2CF
:10E12C0002D101F015FB01E001F0C1FB761D4FF4AB
:10E13C0096708642E7DBBDE8F1832DE9F843804613
:10E14C000D4691460024DFF8F076787A38B1385FC6
:10E15C00804504DB3A7910188045B8BF0124172696
:10E16C003CB1B7F90200864203DB79790818864284
:10E17C0009DB002D4A46B1B2404602D101F0E8FA63
:10E18C0001E001F094FBF61CDB2EE9DBBDE8F1832A
:10E19C002DE9F84F8046914608F1020608F1010777
:10E1AC00A8F10104A8F1020540F22B1A40F22D1B34
:10E1BC000029A9B25BD1002001F0CAFA4A46A1B2EB
:10E1CC00002001F0C5FA4A464146002001F0C0FA91
:10E1DC004A46B9B2002001F0BBFA4A46B1B200205F
:10E1EC0001F0B6FA4A46A1B2012001F0B1FA4A4652
:10E1FC004146012001F0ACFA4A46B9B2012001F0C7
:10E20C00A7FA4A464146022001F0A2FA4A46A9B2B0
:10E21C00584601F09DFA4A46A1B2584601F098FAC8
:10E22C004A464146584601F093FA4A46B9B2584616
:10E23C0001F08EFA4A46B1B2584601F089FA4A46C4
:10E24C00A1B24FF4967001F083FA4A4641464FF45E
:10E25C00967001F07DFA4A46B9B24FF4967001F00F
:10E26C0077FA4A464146504601F072FA73E00020B4
:10E27C0001F01DFB4A46A1B2002001F018FB4A46F2
:10E28C004146002001F013FB4A46B9B2002001F0D0
:10E29C000EFB4A46B1B2002001F009FB4A46A1B27E
:10E2AC00012001F004FB4A464146012001F0FFFA2F
:10E2BC004A46B9B2012001F0FAFA4A464146022018
:10E2CC0001F0F5FA4A46A9B2584601F0F0FA4A466E
:10E2DC00A1B2584601F0EBFA4A464146584601F0C5
:10E2EC00E6FA4A46B9B2584601F0E1FA4A46B1B2EA
:10E2FC00584601F0DCFA4A46A1B24FF4967001F090
:10E30C00D6FA4A4641464FF4967001F0D0FA4A4686
:10E31C00B9B24FF4967001F0CAFA4A4641465046DB
:10E32C0001F0C5FA4A46A9B2002001F0C0FA4A46EB
:10E33C00A1B2002001F0BBFA4A464146002001F090
:10E34C00B6FA4A46B9B2002001F0B1FA4A46B1B267
:10E35C00002001F0ACFABDE8F18F2DE9F8438046BE
:10E36C00914608F1020608F10107A8F10104A8F191
:10E37C000205002959D11321A8B201F0E9F94A4646
:10E38C001321A0B201F0E4F94A461321404601F0F2
:10E39C00DFF94A461321B8B201F0DAF94A461321E3
:10E3AC00B0B201F0D5F94A461421A0B201F0D0F96F
:10E3BC004A461421404601F0CBF94A461421B8B222
:10E3CC0001F0C6F94A461521404601F0C1F94A460A
:10E3DC00DC21A8B201F0BCF94A46DC21A0B201F064
:10E3EC00B7F94A46DC21404601F0B2F94A46DC2135
:10E3FC00B8B201F0ADF94A46DC21B0B201F0A8F98F
:10E40C004A46DB21A0B201F0A3F94A46DB21404683
:10E41C0001F09EF94A46DB21B8B201F099F94A465F
:10E42C00DA21404601F094F971E01321A8B201F011
:10E43C003EFA4A461321A0B201F039FA4A4613219A
:10E44C00404601F034FA4A461321B8B201F02FFAD3
:10E45C004A461321B0B201F02AFA4A461421A0B25E
:10E46C0001F025FA4A461421404601F020FA4A46AA
:10E47C001421B8B201F01BFA4A461521404601F0AE
:10E48C0016FA4A46DC21A8B201F011FA4A46DC2100
:10E49C00A0B201F00CFA4A46DC21404601F007FA22
:10E4AC004A46DC21B8B201F002FA4A46DC21B0B28D
:10E4BC0001F0FDF94A46DB21A0B201F0F8F94A4619
:10E4CC00DB21404601F0F3F94A46DB21B8B201F0FA
:10E4DC00EEF94A46DA21404601F0E9F94A461321A1
:10E4EC00A8B201F0E4F94A461321A0B201F0DFF919
:10E4FC004A461321404601F0DAF94A461321B8B2D4
:10E50C0001F0D5F94A461321B0B201F0D0F9BDE8BB
:10E51C00F183F8B5032440F22B154EF61C7640F22D
:10E52C001E773A461621A0B201F0C1F93A461721DE
:10E53C00A0B201F0BCF93A461821A0B201F0B7F92B
:10E54C003A461921A0B201F0B2F932461721A0B215
:10E55C0001F0ADF932461821A0B201F0A8F9641C03
:10E56C00AC42DEDBF1BD2DE9F041032540F22B146A
:10E57C004EF61C7632461721A8B201F0E9F8324665
:10E58C001821A8B201F0E4F86D1CA542F2DBAB48EF
:10E59C00808BA0F540604FF496714843811200EBDC
:10E5AC005150C012973000B2032500F10A06A0F1B9
:10E5BC000A0740F21E78BD4216DBAE4214DB42461F
:10E5CC001621A8B201F0C4F842461721A8B201F0F6
:10E5DC00BFF842461821A8B201F0BAF842461921F8
:10E5EC00A8B201F0B5F813E042461621A8B201F02A
:10E5FC005EF942461721A8B201F059F9424618219A
:10E60C00A8B201F054F942461921A8B201F04FF911
:10E61C006D1CA542CFDBBDE8F08170B515461E46DA
:10E62C00BDF910407218531E1BB20A462918491E18
:10E63C0009B2FFF74FFB06FB05F0012808DBA4B27B
:10E64C007C497B4A202314604B600B60401EFAD13E
:10E65C00EF23002240F23F110020BDE87040FFF78D
:10E66C0039BB2DE9FE4F04460D469246BDF93000EC
:10E67C000090BDF80800831E1BB2AAF1020212B270
:10E68C00691C09B2601C00B2FFF7C7FFA01C07B2DF
:10E69C00BDF9080000EB05084FF6FF7909EB0800FF
:10E6AC00ADF800000AEB0400801E0190614EDFF80B
:10E6BC0080B1874217DAA9B2B8B2FFF738FBCBF8B2
:10E6CC000090202070603060BDF80010B8B2FFF7E9
:10E6DC002EFBCBF80090202070603060781C07B2C5
:10E6EC0001988742E7DBA81C07B2A24409EB0A0099
:10E6FC00ADF80000BDF908004019801E019087425A
:10E70C0017DAB9B2A0B2FFF712FBCBF800902020B9
:10E71C0070603060B9B2BDF80000FFF708FBCBF8B1
:10E72C000090202070603060781C07B201988742FE
:10E73C00E7DB641C6D1CA9B2A0B2FFF7F8FACBF8AA
:10E74C000090202070603060AAF10207A9B2B8B224
:10E75C00FFF7EDFACBF80090202070603060A8F144
:10E76C000205A9B2A0B2FFF7E2FACBF80090202084
:10E77C0070603060A9B2B8B2FFF7D9FACBF800904C
:10E78C0020207060306003B0BDE8F08F2DE9F84FA9
:10E79C0090461D460A9E40F23F1A01F10D031BB232
:10E7AC000A465146FFF796FA224F214CDFF890901B
:10E7BC000CE080B220607A603A6020607A603A6047
:10E7CC000BF1010BBBF1080F04DB761C307838B36E
:10E7DC0000218B463078222806D35FFA8BF1D9F8CA
:10E7EC0000209269904701B20C204A0705D5002DF4
:10E7FC000EBF4246134A128804E0002D12BF424657
:10E80C00104A128892B2226020227A603A60491033
:10E81C00401EEAD1002D12BF40460A480088C8E7C6
:10E82C00EF230022514601B0BDE8F04FFFF752BA7A
:10E83C000C1801401014014090380020A81800203A
:10E84C00B4380020BA380020DFF86428830A9370AB
:10E85C000223537009B103211170917821B94FF43F
:10E86C0000614FF4806307E0012907BF00210023FA
:10E87C004FF480614FF4006353821182518A08185F
:10E88C0080B2B0F5406F28BFA0F5406090810020A9
:10E89C001081D0807047DFF81C18DFF81C28137823
:10E8AC00581CD1F800C0CCEB802092F800C0634516
:10E8BC00F5D180B2B0F5406F28BFA0F5406080B2B2
:10E8CC0070472DE9F041FFF7E6FF0446DFF8EC67EF
:10E8DC00B789F58CE81B00F056F88046781900F0E3
:10E8EC0052F80146F289DFF8D837DFF8C46715E033
:10E8FC0037B933F81C70B84508DA0127777001E096
:10E90C00012F03D133F81C708F421CDB401CB081EB
:10E91C0080B2B0F5406F24BF0020B081B08984462E
:10E92C00A44513D07778002AE2D037B933F81C709D
:10E93C00B942EBDB0127777001E0012FE6D133F808
:10E94C001C704745E2DB0121FFF77EFFBDE8F0813B
:10E95C00DFF868174A88DFF86C3733F81220C0F5F7
:10E96C0000605043C21200EB12504A8E02EB203072
:10E97C001430CA88821A898E64395143C82291FB9B
:10E98C00F2F108187047DFF834178A8E643AC823FE
:10E99C00B1F806C002FB0CFC03FB00C0C83290FBB4
:10E9AC00F2F078384A8E801A643000034988DFF818
:10E9BC00142732F8111090FBF1F0C0F5006070478D
:10E9CC00F8B5DFF8EC46207820B94FF44065042008
:10E9DC0060700AE0FFF75FFF618A0D18ADB2B5F504
:10E9EC00406FA4BFA5F54065ADB2A689207801287B
:10E9FC0014D02078022811D006F66A30DFF8BC1645
:10EA0C00898B461A0AE01428B8BF1420DFF8B81610
:10EA1C007854032060702089401C208120894FF499
:10EA2C009671884227D20746B902DFF89026928861
:10EA3C00DFF8983633F8122091FBF2F1891907D5DB
:10EA4C00411C89B2E08800F061F82089E080E2E79F
:10EA5C00A94210DA208A4118B1F5406FA8BFA1F580
:10EA6C004061DFF85C0630F81100FFF771FFDC281D
:10EA7C00C9DBDB20CAE76178032918D34FF49672FF
:10EA8C00904214D22278012A02D02278022A03D191
:10EA9C0000F1190189B208E0042904D2DFF81C1630
:10EAAC0089880C2903D34FF4967100F02FF8F1BD2F
:10EABC00F8B500200024DFF818562E464FF21C073C
:10EACC003B4616F8012B415D2046FFF798FA20468D
:10EADC00641C4FF49671A4B28C42F1D3F1BDF8B51D
:10EAEC0000200024DFF8E8552E464FF21C073B4669
:10EAFC0016F8012B415D2046FFF73FFA2046641CB7
:10EB0C004FF49671A4B28C42F1D3F1BD2DE9F843C8
:10EB1C00884640F22D11884528BF4FF4967805465B
:10EB2C00404517D2DFF8AC052E18DFF8AC052F18CE
:10EB3C00FF244EF2807945450CDA4B463278397811
:10EB4C00A8B2FFF75CFA06F8014B07F8014B6D1CF5
:10EB5C004545F2DBDFF8580500210171C170BDE8B5
:10EB6C00F183DFF84C050178002902D041780229A5
:10EB7C0005D300210181C1800221417070474FF4FF
:10EB8C0096710020C2E72DE9F843DFF82445E088B0
:10EB9C0000281ABF451EADB20025DFF82C65DFF842
:10EBAC003875DFF830854EF280792189884219D288
:10EBBC00E0884B4610F80820C15DFFF720FAE0888A
:10EBCC004B46825DA95DFFF7D8F9E088815D00F8BE
:10EBDC000810A95DC1550546401CE080218980B212
:10EBEC008842E5D36078042803D100F0E6F80020D1
:10EBFC0000E002206070BDE8F18380B5FEF7D9FD1E
:10EC0C004FF496710020FFF781FFDFF8A404002178
:10EC1C00417001BD70B5DFF8A444E08B90B9DFF80A
:10EC2C009054687802280DD2287858B968704FF43F
:10EC3C008060A8810020E881FEF7C1FDDFF89C040C
:10EC4C00642101802088032859D1DFF86454687846
:10EC5C00022805D2287828B30021E889FFF7F4FDB3
:10EC6C006878022808BFFFF7ABFE6878032819D331
:10EC7C00FFF789FF2878012802D02878022811D1C3
:10EC8C0028894FF4967188420CD3E88900F22C1035
:10EC9C00E88180B2B0F5406F24BFA0F54060E881F8
:10ECAC0000206870E08B50B32878012802D02878B7
:10ECBC00022824D1E8899630E88180B2B0F5406F03
:10ECCC0024BFA0F54060E8810121E889FFF7BCFD75
:10ECDC00DFF80C5440F21E76324601212888FFF7EB
:10ECEC002CFA324601212888FFF737FBFFF711FC7D
:10ECFC004FF44060A083DFF8EC03012101752088FC
:10ED0C0008B1042821D1DFF8A853687802280ED264
:10ED1C002878022819D3DFF8C403008828B9FFF734
:10ED2C00BAFD0121FFF790FD01E0FFF7CAFD6878FD
:10ED3C00022808BFFFF744FE6878032805D3DFF8E4
:10ED4C009C03008808B9FFF71EFF2088012815D105
:10ED5C00D74D6878022804D2287802282CD3FFF7E4
:10ED6C00B0FD6878022808BFFFF72AFE68780328F0
:10ED7C0004D3DA48008808B9FFF705FF2088022879
:10ED8C001AD1CB4D6878022804D22878022813D3E4
:10ED9C00FFF797FD6878022808BFFFF711FE687827
:10EDAC00032809D3CD48008830B9FFF7ECFE0120C9
:10EDBC00E083CC480121017070BD2DE9F04F87B084
:10EDCC004FF6FF70ADF800000020ADF802000024F3
:10EDDC008246054601908146B84FF888FFF7D3FD6F
:10EDEC008046FE8CB889301AFFF7CDFD0590B889A6
:10EDFC008019FFF7C8FD04903046FFF7C4FD03905F
:10EE0C002046AB4E328A9646B18901F22C11029102
:10EE1C00AB497346B3F5406FA4BFA3F540639BB2F7
:10EE2C0031F813C0E244B6F80CC0604517D3DDF8D6
:10EE3C0008C0604513DA31F813C0BDF800B0DC45EA
:10EE4C003CBF31F813B0ADF800B0BDF802C031F8DA
:10EE5C0013B0DC453CBF31F813B0ADF802B03CB98F
:10EE6C00DDF814C031F813B0DC4512D2012401E0F6
:10EE7C00012C0ED131F81330DDF810C0634508D2E7
:10EE8C000024019B1BB901908146002501E08146BD
:10EE9C006D1C401C0EF1010E80B2B0F5406FB8D362
:10EEAC004FF440609AFBF0F002900020F070ADB28D
:10EEBC00002D00F08880844600248646019883B299
:10EECC004B4531D2121892B21346B3F5406FA4BF22
:10EEDC00A3F540639BB231F813A0DDF80CB0DA4512
:10EEEC0038BF0CF1010C31F813A0CAF5805AAAEB0B
:10EEFC00080A0AFB0AFA4FEAAA0B0AEB5B7A0EEB3A
:10EF0C00EA0E31F813A0C2453EBF444431F8133029
:10EF1C00E41A04D331F813301B19A3EB0804401C7A
:10EF2C00521C80B24845CFD30198A9EB0008B98890
:10EF3C004FF47A7005293EBF6B49694391FBF8F198
:10EF4C000BD36A4A6A4B53F82110B2FBF1F16943B7
:10EF5C00019AA9EB0202B1FBF2F1484370616548DA
:10EF6C0000FB0CF090FBF8F0B0619EFBF8F0C000D9
:10EF7C00FEF794FE7A88534931F8121000FB01F326
:10EF8C005D4850F82200DA1203EB1252121300FB08
:10EF9C0002F9BA8E643AC82302FB09FC9CFBF3FC11
:10EFAC00E144C6F8209094FBF8F46143CC1201EBD9
:10EFBC0014510913484302FB00F191FBF3F10818BB
:10EFCC0070620120F070BDF80200BDF8001088429C
:10EFDC0038BF0846FFF7BCFC80464748798850F894
:10EFEC002140B7F80690A8EB09006043F062BDF829
:10EFFC000000FFF7ADFCA0EB090161433163A0EB0E
:10F00C00080804FB08F0F0610298FFF7A1FC8246A7
:10F01C00AAEB09006043B06201203071314C2071C1
:10F02C00388804283BD17089002838D1142D04D29B
:10F03C00B8880E2809D2401C04E03D2D05D3B888B1
:10F04C0018B1401EB8800120A070B8F1320F08DA58
:10F05C00388A80B97888C8B1401E788001206070E9
:10F06C0014E0B8F1970F11DB388A50B97888092869
:10F07C000CD2401CF1E7012808D178880C2805D364
:10F08C00EAE7012802D178881228F2D3FDF742FD75
:10F09C00B889AAEB4000F8840120E07420757089CF
:10F0AC0006282CBF0020401C708107B0BDE8F08FF3
:10F0BC00343800200C000240BC380020A818002076
:10F0CC0080190020E0180020B0340020300C01081A
:10F0DC0080330020DC35002008370020B2380020B7
:10F0EC00B03800206C18002042130D0000CA9A3B67
:10F0FC00A4040108A08601005404010800F10103D6
:10F10C00810704D010F8011B89B18107FAD102687C
:10F11C00B2F10131914311F0803F04BF50F8042F3C
:10F12C00F6E710F8011B11B110F8011BFBE7C01A30
:10F13C00704710B450F8041B81B102681218001DFE
:10F14C0050F8043BDC0744BFA9F10104E31852F862
:10F15C00044B43F8044B091FF9D1EBE710BC704783
:10F16C00F8B5DFF80064DFF800444FF400720021BA
:10F17C00204633685B699847002801D0FF20F2BD18
:10F18C0004F2C61081784078000200EB014094F83C
:10F19C00C611081845024FF4007229462046336800
:10F1AC005B6998470028E9D104F20B01DFF8BC0336
:10F1BC004A78E37A03EB022242808A7882800B79C8
:10F1CC00CE7806EB0323CE798F7907EB0626B6B201
:10F1DC002EB1012791F80CC091F80BE004E0002748
:10F1EC0091F81AC091F819E00EEB0C2C07704788B7
:10F1FC009BB207FB0353436249791FFA8CF56943B1
:10F20C0007FB0131C1600378002B05D0F11006EB30
:10F21C0011710911C18012E004F22C03DD789E7883
:10F22C00360406EB05655B7805EB032394F82C405C
:10F23C00E318C3619B1E5A4307FB02118161002036
:10F24C00F2BD70B5DFF82443606A226A217829B1D7
:10F25C00110A00EB41211006C50D05E0D10900EBA8
:10F26C00412102F07F008500BF4E4FF40072304602
:10F27C00BC4B1B685B699847002801D0FF2070BD10
:10F28C00A8194178AA5D23785BB112EB01202062AA
:10F29C004FF6F0718842F1D2E168E28801EB42212D
:10F2AC000EE0C37803F00F038078000400EB0360DA
:10F2BC0010EB012010182062AD498842DED2E168C3
:10F2CC00801EA2885043628802FB0010206100203F
:10F2DC0070BD30B4002307E0AC4202D2203DA54201
:10F2EC000BD15B1C401C491C934208DA04780D7846
:10F2FC00A542F1D2203CAC42F3D0002000E001202A
:10F30C0030BC70472DE9F74F8346FFF7F7FE84B208
:10F31C000025964EB0693061F0693062924F0AE078
:10F32C00ADB27088400AB1884843854207DBFFF7CD
:10F33C0088FF80B90025307808B1F06800E03069AA
:10F34C0000EB452171614FF400723846854B1B6808
:10F35C005B69984718B1FF2003B0BDE8F08F4FF000
:10F36C000008B94604EB070A99F80B001F21084264
:10F37C003ED1224659464846FFF7ABFF002837D00E
:10F38C000322029909F10800FFF7A3FF80B30322BF
:10F39C0001995046FFF79DFF50B308EB0700C17F62
:10F3AC00827F120402EB0161427F01EB0221027F9A
:10F3BC005118D0D0C17E0C02857E7188B288F3685A
:10F3CC00377827B12819F48803EB442306E0477DEE
:10F3DC00007D000400EB076020182818841E62438F
:10F3EC0001FB023130623161A6F808800020B3E7DE
:10F3FC0008F120080AF1200A09F120094FF40070E5
:10F40C008045B1DB6D1C3078002889D0F088ADB216
:10F41C00854292D39FE72DE9F84F36240025A84664
:10F42C00DFF844B136225349584600F0B4F82E4662
:10F43C00DFF830914D4FC2463146504600F012FB7A
:10F44C0000F01F01C0F38412520142EA812141EA0B
:10F45C00D02004F80B0004EB0B01000A4870A41C2C
:10F46C00A4B24FF4007084421BDB02463969584643
:10F47C00D9F800301B69984708B1FF202DE0002413
:10F48C00386900F2002038616D1CADB27888400AF2
:10F49C00B9884843854204DBFFF7D3FE0028ECD142
:10F4AC0000250AF101014FF4A0701FFA81FA824580
:10F4BC00C2D3701C86B2F02EBDD3012C08DB4FF4E6
:10F4CC00007239695846D9F800301B699847804654
:10F4DC00D9F80000C06880474046BDE8F28F4FF471
:10F4EC0000722248016920481E4B1B685B69184753
:10F4FC0038B51C4C4FF400721C4801691A4823683B
:10F50C001B69984705462068C0688047284632BD6D
:10F51C0000201549184A135C01F8013B401C802857
:10F52C00F9DB7047F8B500F015FB134C204600F0E2
:10F53C0021FB0546042810D100260B4F387879782A
:10F54C0000EB012189B2A01900F032FB054604281A
:10F55C0003D1B61CBF1C802EF0DB00F004FB284648
:10F56C00F2BD0000B4380020803100206838002043
:10F57C00F0FFFF0FF80B010800F001084AB38B07EE
:10F58C0007D0521E11F8013B00F8013B21D08B072C
:10F59C00F7D183071ED1103A07D330B4B1E8381035
:10F5AC00103AA0E83810F9D230BC530724BFB1E8A8
:10F5BC000810A0E8081044BF51F8043B40F8043B85
:10F5CC00D20724BF31F8022B20F8022B44BF0B7852
:10F5DC0003707047083A07D3B1E80810083A40F8AE
:10F5EC00043B40F804CBF7D25307E4E762F30F2255
:10F5FC0062F31F42401810F0030308D0C91A1FD33E
:10F60C00DB0748BF00F8012D28BF20F8022D13009E
:10F61C0030B414461546103928BF20E93C00FAD8FE
:10F62C00490728BF20E90C0048BF40F8042D890089
:10F63C0028BF20F8022D48BF00F8012D30BC7047C0
:10F64C00C91818BF00F8012DCB0728BF00F8012DF1
:10F65C00704750F8041B61B150F8042BD30744BF1A
:10F66C00A9F101039A18002342F8043B091FFAD1AF
:10F67C00EFE7704762F30F2262F31F4200B51300ED
:10F68C0096469446103928BFA0E80C50FAD85FEA89
:10F69C00417C28BF0CC048BF40F8042BC90728BFC9
:10F6AC0020F8022B48BF00F8012B00BD2DE9F041DA
:10F6BC0005780121C2787AB3214A126802F4E0621B
:10F6CC00C2F5E062120AAB10DFF8708058F82370B4
:10F6DC0005F00305ED00FF26AE40B7434478C2F1B8
:10F6EC00040E04FA0EFC90F802E00F2424FA02F245
:10F6FC0002EA0E0242EA0C021201AA4032403A43DC
:10F70C0048F82320007842110E4B00F01F0001FA3C
:10F71C0000F043F8220006E06811074A05F01F03C9
:10F72C00994042F82010BDE8F081074A1140084387
:10F73C00064908607047000080E100E000E400E04A
:10F74C000CED00E000E100E080FFFF1F08ED00E0A1
:10F75C00F0B441F60007C4F2010741F20046C4F2CE
:10F76C000106022320242025FD607361746141F29F
:10F77C000046C4F2010634613361F960746141F2F0
:10F78C000046C4F2010634612125FD607361746189
:10F79C0041F20046C4F2010634613361F8607461D1
:10F7AC0041F20046C4F2010634612225FD6073610A
:10F7BC00746141F20046C4F20106346133615FF0BA
:10F7CC0044357D603D601020706141F20046C4F20A
:10F7DC00010641F20046C4F2010641F20046C4F2B1
:10F7EC00010641F20046C4F20106306141F20046C6
:10F7FC00C4F2010641F20046C4F2010641F2004691
:10F80C00C4F2010641F20046C4F20106706141F6F1
:10F81C000006C4F2010641F60006C4F2010641F2EC
:10F82C000046C4F2010641F20046C4F20106BB6870
:10F83C0030615FF033357D603D6002202025FD6036
:10F84C007061746141F20046C4F2010634613061AA
:10F85C00F960746141F20046C4F20106346122255C
:10F86C00FD607061746141F20046C4F201063461BE
:10F87C00306141F2820513EA050002D012EA05005C
:10F88C0006D041F6E30503EA050343EA020305E06B
:10F89C0041F6E30502EA050243EA0203FB607461E8
:10F8AC0041F20046C4F201063461F0BC7047F0B47A
:10F8BC0041F60007C4F2010741F20046C4F201060A
:10F8CC00022320242025FD607361746141F20046FF
:10F8DC00C4F2010634613361F960746141F200468F
:10F8EC00C4F2010634612125FD607361746141F23B
:10F8FC000046C4F2010634613361F860746141F270
:10F90C000046C4F2010634612225FD607361746106
:10F91C0041F20046C4F20106346133615FF04435B4
:10F92C007D603D601020706141F20046C4F201061A
:10F93C0041F20046C4F2010641F20046C4F201064F
:10F94C0041F20046C4F20106306141F20046C4F2B5
:10F95C00010641F20046C4F2010641F20046C4F22F
:10F96C00010641F20046C4F20106706141F6000640
:10F97C00C4F2010641F60006C4F2010641F200464B
:10F98C00C4F2010641F20046C4F20106BB683061C4
:10F99C005FF033357D603D6002202025FD60706195
:10F9AC00746141F20046C4F2010634613061F960C1
:10F9BC00746141F20046C4F2010634612225FD60F7
:10F9CC007061746141F20046C4F201063461306129
:10F9DC0041F6E30503EA050010403AD003EA0503BB
:10F9EC0002EA0502934334D040F280051D4004D056
:10F9FC004EF2807543EA05032BE040F202051D40F0
:10FA0C0004D040F21E7543EA050322E041F20005E2
:10FA1C001D4004D04FF21C0543EA050319E040F2E7
:10FA2C0020051D4004D048F2307543EA050310E070
:10FA3C0040F600051D4004D04EF61C7543EA050344
:10FA4C0007E040F240051D4003D048F2504543EA20
:10FA5C000503FB60746141F20046C4F20106346197
:10FA6C00F0BC7047F0B441F60007C4F2010741F254
:10FA7C000046C4F20106022320242025FD60736198
:10FA8C00746141F20046C4F2010634613361F960DD
:10FA9C00746141F20046C4F2010634612125FD6017
:10FAAC007361746141F20046C4F201063461336142
:10FABC00F860746141F20046C4F2010634612225FB
:10FACC00FD607361746141F20046C4F20106346159
:10FADC0033615FF044357D603D601021716141F20E
:10FAEC000046C4F2010641F20046C4F2010641F29E
:10FAFC000046C4F2010641F20046C4F2010631612F
:10FB0C0041F20046C4F2010641F20046C4F201067D
:10FB1C0041F20046C4F2010641F20046C4F201066D
:10FB2C00716141F60006C4F2010641F60006C4F20A
:10FB3C00010641F20046C4F2010641F20046C4F24D
:10FB4C000106B86831615FF033357D603D60F0BC13
:10FB5C0070470000DFF8B000DFF8B0100160DFF88C
:10FB6C00B01001607047DFF8AC00016841F0800113
:10FB7C000160704770B5054640F6FF76304600F0E0
:10FB8C004DF8042813D1234C206840F0020020606B
:10FB9C006560206840F040002060304600F03EF880
:10FBAC00012804D0216841F6FD721140216070BD1E
:10FBBC0070B504460D460F2000F030F804280FD124
:10FBCC00144E306840F00100306025800F2000F0AA
:10FBDC0025F8012804D0316841F6FE7211403160DD
:10FBEC0070BD0D480168C90701D501207047016837
:10FBFC00490701D5022070470068C00601D50320D3
:10FC0C007047042070470000042002402301674520
:10FC1C00AB89EFCD102002400C20024038B50546D0
:10FC2C00FFF7DFFFFF2408E00098401E00900098CB
:10FC3C000028F9D1FFF7D5FF6D1E012804D125B19D
:10FC4C00002000900094F2E705B9052032BD0000B9
:10FC5C002DE9F84FDFF8B0070068DFF8B0472060F7
:10FC6C000068DFF8AC17884200D0FEE74FF4404143
:10FC7C004FF00060FFF759FDFDF734FDDFF89407F6
:10FC8C000090002340F2FF721721A820FEF77EFDA2
:10FC9C00DFF8840746F20C3101804FF4FA60FDF76F
:10FCAC00BDFD4FF00009DFF874B748462168C969FB
:10FCBC0088470BF8010B09F101014FF498701FFAFA
:10FCCC0081F98145F1D3FEF74FF8FCF754FFFFF7AC
:10FCDC001FFCFDF76FFC0020FDF722FA4EF61C7896
:10FCEC00DFF83C9740F21E7BDFF83877DFF83847B7
:10FCFC00DFF83857DFF838A7DFF8386710E03078CE
:10FD0C00072804D1A08EC8283CBF401CA0863078A0
:10FD1C00062803D1A08E08B1401EA08600203070AA
:10FD2C00FCF7DEF9FEF776FF30780028F8D0307853
:10FD3C00042810D19AF8090030B19AF80600401E38
:10FD4C00C0B2FDF75BF906E0DFF8EC060078401E68
:10FD5C00C0B2FDF7E5F93078052810D19AF8090002
:10FD6C0030B19AF80600401CC0B2FDF747F906E026
:10FD7C00DFF8C4060078401CC0B2FDF7D1F930782A
:10FD8C00022807D19AF8090010B1FCF715FF01E021
:10FD9C00FCF73AFF3078012808D12870E08B08B9BD
:10FDAC00012002E0FEF729FF0020E083208C0121D6
:10FDBC00415529753078032840F0A4809AF8090041
:10FDCC0038B1FCF7F9FEFCF78BF9208C0121415579
:10FDDC002975208C1A2800F29580DFE800F00E932C
:10FDEC00939393933093938285933B41479393677B
:10FDFC006D2593737F888B8E9100208804280CD0FE
:10FE0C00FCF788FE0320A081A0880F2803D30E20C6
:10FE1C00A0800120A870042000E000202080002099
:10FE2C00E0830120E8736DE0FCF774FEF87C401C65
:10FE3C0010F00100F87465D10120B87162E0FCF794
:10FE4C0069FEB879401C10F00100B8715AD101203C
:10FE5C00F87457E0387B401C00F00100387351E017
:10FE6C00787B401C00F0010078734BE0B9F800007F
:10FE7C00A18BB1F5406F09D1B97B491C01F001018F
:10FE8C00B9735A460121FEF758F93BE05A46012155
:10FE9C00FEF753F95A460121B9F80000FEF75DFA56
:10FEAC004FF44060A083FEF75CFE2BE0787C401C96
:10FEBC0000F00100787425E0B87C401C00F00100D3
:10FECC00B8741FE07878401C10F00100787002D0F4
:10FEDC00FEF7EEFD16E0FEF702FE13E0FDF769FA01
:10FEEC0010E0FDF71DFA0DE0FDF7D1F90AE0FDF782
:10FEFC0095FA07E0FDF7DEFA04E06420608601E085
:10FF0C006420A0863078062803D0307807287FF448
:10FF1C0005AF208C1A283FF601AFDFE810F07F0008
:10FF2C001D004C009C01C7011C00C100DE00DB0160
:10FF3C0016022902E400F7001A0139011C001C000A
:10FF4C005E017D01A5001C00F70103023C024F027B
:10FF5C0062021B00D3E6E1E64FF44060A08301206F
:10FF6C00A8735A460121B9F80000FEF7F6F930786B
:10FF7C0007280BD1208A10B96088092803E00128D2
:10FF8C0004D1608812283CBF401C60803078062861
:10FF9C000BD1208A10B9608838B104E0012804D153
:10FFAC0060880C2801D3401E60800120E874A8747E
:10FFBC00FEF723FEB2E63078072804D1A088152876
:10FFCC003CBF401CA0803078062803D1A08808B123
:10FFDC00401EA0804FF44060A0835A460121B9F81E
:10FFEC000000FEF7BAF901202874FEF706FE2088FF
:04FFFC0040B9A088E0
:020000040801F1
:100000000F28FFF491AE032020800120287002E029
:1000100003287FF489AEA0880F28BFF485AE0020A6
:100020002080012028707FE62088032824BF00203C
:1000300020803078062805D12088002814BF401E73
:10004000022020803078072805D12088022834BF7C
:10005000401C00202080FEF7D6FD0020E083208891
:1000600000287FF461AEA0880F28FFF45DAE032066
:10007000208059E6FCF754FD3078072807D1E08C42
:10008000A189C1F1DA018842BCBF401CE08430780C
:10009000062806D1E08CA18915318142BCBF401EE3
:1000A000E0840020F8740120B8713DE6FCF738FDCB
:1000B000307807280BD1A0890146E28CC1F1DA0320
:1000C0009A4204DA15319142BCBF401CA0813078BD
:1000D000062803D1A08908B1401EA0810020B87174
:1000E0000120F87420E6E089401C00F00100E08166
:1000F0001AE63078062804D1E08A0F283CBF401C5D
:10010000E082307807287FF40FAEE08A00283FF4C1
:100110000BAE401EE08207E642460121208BFEF72F
:1001200022F942460121208BFEF70DF8307807288E
:1001300006D1208B40F22B1188423CBF401C20830B
:100140003078062806D1208B618B491C8142BCBFC8
:10015000401E20830020387301202874E4E54246C5
:100160000121608BFEF7FFF842460121608BFDF70D
:10017000EAFF3078072806D1608B218B491E884220
:10018000BCBF401C60833078062804D1608B0328F4
:1001900024BF401E608300207873DDE75A460121AA
:1001A000B9F80000FDF7CFFF5A460121B9F8000069
:1001B000FEF7D9F83078072806D1A08B40F6E87111
:1001C00088423CBF1930A0833078062806D1A08B26
:1001D00040F61901884224BF1938A083FEF7C7FCF6
:1001E0000020B873A0E542460121608CFDF7D6FFE0
:1001F00042460121608CFDF778FF3078072806D150
:10020000608CA18C491E8842BCBF401C6084307841
:10021000062804D1608C162824BF401E608400206C
:10022000787481E542460121A08CFDF7B7FF424674
:100230000121A08CFDF759FF3078072804D1A08C4C
:10024000DA283CBF401CA0843078062806D1A08C58
:10025000618C491C8142BCBF401EA0840020B87440
:1002600062E54EF280720121E088FDF797FFFCF70E
:1002700057FC307807280CD1E088DA2809D2E18CC5
:10028000A289C2F1DA02914203DA401CE080481CE4
:10029000E084307806287FF447ADE0881628FFF424
:1002A00043ADE18CA28913328A42BFF63DAD401EB8
:1002B000E080481EE08437E53078072805D12089A2
:1002C000072834BF401C00202081307806287FF4A6
:1002D0002BAD208910B1401E208125E50720FBE7CA
:1002E000208A401C10F00100208204D160880A2876
:1002F00008D3093805E0012804D160880A2801D212
:10030000093060804FF496710020FEF705FC012053
:100310006870E874A87407E57878401C10F0010054
:10032000787002D0FEF7CAFBFEE4FEF7DEFBFBE4CA
:100330003078072804D1A08DFF283CBF401CA08541
:10034000307806287FF4F0ACA08D0228FFF4ECACE6
:10035000401EA085E8E43078072804D1608AFF2891
:100360003CBF401C6082307806287FF4DDAC608A98
:100370000228FFF4D9AC401E6082D5E4307807280B
:1003800004D1A08AFF283CBF401CA08230780628F8
:100390007FF4CAACA08A0228FFF4C6AC401EA0823B
:1003A000C2E43078072804D1E08DFF283CBF401C10
:1003B000E085307806287FF4B7ACE08D00283FF464
:1003C000B3AC401EE085AFE43078072804D1208E1E
:1003D000FF283CBF401C2086307806287FF4A4AC60
:1003E000208E00283FF4A0AC401E20869CE430788C
:1003F000072804D1608EC8283CBF401C6086307836
:1004000006287FF491AC608E00283FF48DAC401E2E
:10041000608689E41C400008B43800201303AFAFA5
:10042000480D0108BA38002080330020B038002081
:1004300058190020A81800206C18002090380020BF
:10044000BD3800209C3800201F00FF07E007E007B0
:10045000E00700009001000020030000D00700002A
:10046000A00F0000401F0000204E0000409C000034
:1004700080380100400D0300801A0600401F000074
:10048000204E0000409C000080380100400D030019
:10049000801A060000350C0080841E0000093D0013
:1004A000000000002800000050000000C80000000C
:1004B0009001000020030000D0070000A00F000002
:1004C000401F0000204E0000409C000080380100CA
:1004D000400D0300801A060000350C0080841E00C9
:1004E00000093D0000127A00002D3101005A62021D
:1004F00000B4C40400C2EB0B0084D7170000000056
:1005000000000000000000000000000000000000EB
:1005100000000000000000000000000003000000D8
:10052000030000000F0000000F0000003F0000006B
:100530003F0000007F0000007F0000004700000037
:100540008F00000067010000CF0200009F0500003F
:100550000F0E00001F1C00003F3800002723000082
:100560004F46000027230000E3570000F12B000056
:10057000E3570000DC6D0000B9DB000053686F77C3
:1005800020526566000000004174742E207831000E
:100590004174742E20783130000000002E424D50FE
:1005A000000000002E4441540000000048696465CA
:1005B00020526566000000002E4346470000000000
:1005C000466C61736800000031306D562F446976C7
:1005D000000032306D562F446976000035306D567C
:1005E0002F4469760000302E31562F446976000082
:1005F000302E32562F4469760000302E35562F4467
:10060000697600002031562F4469762000002032A0
:10061000562F4469762000002035562F44697620F5
:100620000000203130562F4469760000302E3256BB
:100630002F4469760000302E35562F44697600002D
:100640002031562F4469762000002032562F44690D
:10065000762000002035562F446976200000203196
:1006600030562F4469760000203230562F44697688
:100670000000203530562F44697600003130305666
:100680002F4469760000202D474E442D2020000085
:10069000203175732F4469762000203275732F4402
:1006A00069762000203575732F446976200020314B
:1006B0003075732F4469760020323075732F44698A
:1006C000760020353075732F4469760031303075EF
:1006D000732F4469760032303075732F4469760089
:1006E00035303075732F4469760020316D732F4497
:1006F0006976200020326D732F4469762000203502
:100700006D732F44697620002031306D732F44695A
:1007100076002032306D732F446976002035306DBD
:10072000732F446976003130306D732F4469760041
:100730003230306D732F446976003530306D732F51
:1007400044697600202031732F44697620002020F0
:1007500032732F4469762000202035732F44697648
:100760002000203130732F4469762000314D487AC3
:100770000000003530306B487A003230306B487AF8
:10078000003130306B487A0035306B487A000032E7
:10079000306B487A000031306B487A0000356B4886
:1007A0007A000000326B487A000000316B487A0012
:1007B0000000353030487A0000323030487A00008E
:1007C000313030487A00003530487A00000032304D
:1007D000487A0000003130487A0000006E730075DE
:1007E00073006D73007320007E6027007E607D00C3
:1007F0007E7C7D007B7C7D00555342004155544FEB
:10080000004E4F524D0053494E47005343414E0056
:1008100046495400000000007047FEE7FEE7FEE78F
:10082000FEE77047704770477047704770477047E2
:100830007047704770477047704770477047704700
:1008400030B467480278674902230B60022A2CBF44
:100850000022521C644B1C78022C3CBF02241C70EA
:100860001C78032C08D3D2B2022A34BF541C0024B3
:100870005E4D2D78A5420DD000234B605C4BD2B26B
:1008800003EBC2230B614FF480638B6043F283530D
:100890004B6001E000211970027030BC7047704756
:1008A00070477047704770477047704751480068FD
:1008B000806800474F4800684068004770477047AD
:1008C00070477047704770477047704770B400209A
:1008D0004949086049490A8812B10A88521E0A80AB
:1008E00047490A8812B10A88521E0A8045494B7846
:1008F000CA780C7814B1601E08706CE014240C7077
:100900005B1CDBB2052B27D33F4B1B888C6865092A
:100910001B195B1B8B603D4B1B685B0548BF0423A9
:1009200011D440F6B9339D4228BF03230BD240F6C1
:10093000AB239D4228BF022305D240F69D139D4262
:100940009B41DB43DB0F324C6589AB4203D06381B3
:10095000304B01245C71002302B1521E2E4D2C68D5
:10096000240558BF02201DD52C4C2668360758BFD9
:10097000032017D52668F60658BF012012D5266831
:10098000760658BF04200DD52D68AD0558BF05204B
:1009900008D52568AD0658BF062003D5246824066F
:1009A00018D407208C78A0420FD1D2B292B9042873
:1009B00028BF03220CD202280CD10C7954B901248F
:1009C0000C71174C0325257004E0192200240C71CA
:1009D000134C20708870CA704B7070BC7047000058
:1009E000BC38002004000240343800203638002093
:1009F00080190020B438002010040040B8380020CE
:100A0000B2380020741900204E240140080C014027
:100A1000A81800206C1800200814014008080140A4
:100A2000BD38002070477047704770477047704767
:100A300070477047704770477047704770470000B5
:100A40005C0E010801040000640E010800040000AF
:100A50006C0E010800040000740E01080004000080
:100A6000140F0108000400007C0E010800040000BF
:100A7000840E0108000400008C0E01080004000030
:100A8000940E0108010100009C0E01080102000003
:100A9000580D0108010E0000640D0108000D000052
:100AA000700D0108000C00007C0D0108011200000F
:100AB000880D010800110000A40E010800030000C9
:100AC000940D010801000000A00D010800130000B2
:100AD000AC0D010800060000B80D01080007000079
:100AE000C40D010801160000D00D01080009000026
:100AF000DC0D0108000A00007C050108001500005B
:100B0000E80D010800170000F40D010800180000AE
:100B1000000E0108010B00000C0E01080108000086
:100B2000180E010800190000240E0108001A000028
:100B30007556006D56005620006B5600487A20000E
:100B4000487A20006B487A004D487A0030BF7047E1
:100B500020BF704740BF7047BFF36F8F7047BFF330
:100B60004F8F7047BFF35F8F704701DF7047EFF320
:100B70001480704780F31488BFF36F8F7047EFF3D2
:100B80000980704780F309887047EFF30880704749
:100B900080F30888704772B6704762B6704771B6C6
:100BA000704761B6704780F311887047EFF3128089
:100BB000704740BA704700BA704700000200DF007B
:100BC00026002800DF0010003800DF004800800009
:100BD000DF005000D800DF004F002701DF001900C0
:100BE000020003004E00500003005000A00003006C
:100BF0005000F00003005000424D36580200000043
:100C00000000360000002800000040010000F00055
:100C10000000010010000000000000580200000069
:100C200000000000000000000000000000000000C4
:100C3000A474523A5417AA0BD5050004000400040A
:100C40000004000400040004000400040004000484
:100C50000004000400040004000400040B000B0066
:100C60000B000B000B000F000F000F000F000F0018
:100C70000F001F003F003F007F00FF00FF00FF004C
:100C8000FF01FF01FF01FF0306000600060006004A
:100C900006000800110023005900B3006701C101DC
:100CA000C101830364046404C908F815F815F12B25
:100CB000DC6DDC6D10B5084979441C31074C7C446F
:100CC0001A34A14206D0081D0A6851188847014607
:100CD000A142F8D110BD00BF0800000028000000AC
:100CE0007FE9FFFF401F0000801900200000000086
:100CF0004FE4FFFF800100004402000000180020C4
:100D00000000000000F009F8002801D0FFF7D2FF32
:100D10000020FEF7A3FF00F002F80120704780B525
:100D200000F002F800BF00000746384600F002F865
:100D3000FBE7000080B5C046C046024A11001820FB
:100D4000ABBEFBE7260002004150502076657220C2
:100D5000332E3133000000005472696720506F73E6
:100D600000000000543120437572736F7200000060
:100D7000543220437572736F720000005631204365
:100D80007572736F72000000563220437572736F74
:100D90007200000054722E204D6F64650000000048
:100DA00054722E204C6576656C00000054722E2023
:100DB00053656E732E00000054722E204B696E64D2
:100DC000000000005361766520496D670000000057
:100DD0005361766520526566000000004C6F6164C7
:100DE0002052656600000000536176652050726FE6
:100DF000000000004C6F61642050726F0000000022
:100E00004F757420467265710000000050726F6269
:100E1000652041747400000043616C204F66667366
:100E20000000000043616C2052616E6765000000A5
:100E300057726974652045727200000052656164E2
:100E40002045727200000000C046C046C046C04641
:100E5000FFF758FF1303FAFA490E0108467265714D
:100E600000000000447574790000000056726D7334
:100E700000000000566176670000000044432056E1
:100E800000000000566D696E00000000566D61782C
:100E900000000000562F446976000000542F44697A
:100EA00076000000476E6420506F7300592D617802
:100EB00069730000582D6178697300005472696786
:100EC000676572004D6561737572650046696C6592
:100ED000000000004F746865720000004E6F2046ED
:100EE000696C650053442045727200004E6F2043C8
:100EF0006172640053617665204F6B004661696CD6
:100F00006564000046494C4500000000494D4147DA
:100F10004500000056707000564400005444000024
:100F20005941000058410000545200004D45000056
:100F300046490000465200004F540000180F0108B7
:100F4000940E0108080000001C0F01089C0E010807
:100F500009000000200F0108AC0E01080D00000080
:100F6000240F0108B40E01080A000000280F010830
:100F7000BC0E0108100000002C0F0108C40E01086F
:100F800000000000300F0108CC0E01081400000022
:100F9000340F01085C0E01081A000000380F010828
:100FA000D40E01081B00000000000000000000003B
:100FB0000000000000000000000000000000000031
:100FC00000000000300E0108DC0E0108E40E0108EC
:100FD000EC0E0108F40E0108FC0E01083C0E01089D
:100FE0003030300000000600070050000000040010
:100FF000080000000000010001000900E9004400B1
:10100000000C000000002800C7008C000000000059
:101010000100010001006400640000008C0BC605A3
:101020004F0228015A04BE01DF008504CF01E7000A
:10103000AC05450222013A04B101D8001804A3010D
:10104000D200E70014002A006800CF0037008A00B1
:1010500013013500840009012A006900D400390019
:101060008E001C013B0092002601000071031F034B
:101070003602B400EE02B701B5FFF602CD01DBFF88
:101080001F033302A100E702A80193FFDF029901C9
:101090006EFFBC0301010101010101010101010118
:1010A000000001010100000000000000000000003D
:0C10B0000005000000000000009001009E
:0400000508010E4997
:00000001FF
